{
	"soliproblems/BinarySearch.sol": {
		"BinarySearch": {
			"abi": [
				{
					"inputs": [
						{
							"internalType": "int256[]",
							"name": "nums",
							"type": "int256[]"
						},
						{
							"internalType": "int256",
							"name": "target",
							"type": "int256"
						}
					],
					"name": "search",
					"outputs": [
						{
							"internalType": "uint256",
							"name": "",
							"type": "uint256"
						}
					],
					"stateMutability": "pure",
					"type": "function"
				}
			],
			"devdoc": {
				"kind": "dev",
				"methods": {},
				"version": 1
			},
			"evm": {
				"assembly": "    /* \"soliproblems/BinarySearch.sol\":63:730  contract BinarySearch {... */\n  mstore(0x40, 0x80)\n  callvalue\n  dup1\n  iszero\n  tag_1\n  jumpi\n  revert(0x00, 0x00)\ntag_1:\n  pop\n  dataSize(sub_0)\n  dup1\n  dataOffset(sub_0)\n  0x00\n  codecopy\n  0x00\n  return\nstop\n\nsub_0: assembly {\n        /* \"soliproblems/BinarySearch.sol\":63:730  contract BinarySearch {... */\n      mstore(0x40, 0x80)\n      callvalue\n      dup1\n      iszero\n      tag_1\n      jumpi\n      revert(0x00, 0x00)\n    tag_1:\n      pop\n      jumpi(tag_2, lt(calldatasize, 0x04))\n      shr(0xe0, calldataload(0x00))\n      dup1\n      0x066a7e60\n      eq\n      tag_3\n      jumpi\n    tag_2:\n      revert(0x00, 0x00)\n        /* \"soliproblems/BinarySearch.sol\":92:727  function search(int256[] memory nums, int256 target) public pure returns (uint256) {... */\n    tag_3:\n      tag_4\n      0x04\n      dup1\n      calldatasize\n      sub\n      dup2\n      add\n      swap1\n      tag_5\n      swap2\n      swap1\n      tag_6\n      jump\t// in\n    tag_5:\n      tag_7\n      jump\t// in\n    tag_4:\n      mload(0x40)\n      tag_8\n      swap2\n      swap1\n      tag_9\n      jump\t// in\n    tag_8:\n      mload(0x40)\n      dup1\n      swap2\n      sub\n      swap1\n      return\n    tag_7:\n        /* \"soliproblems/BinarySearch.sol\":166:173  uint256 */\n      0x00\n        /* \"soliproblems/BinarySearch.sol\":186:198  uint256 left */\n      0x00\n        /* \"soliproblems/BinarySearch.sol\":201:202  0 */\n      0x00\n        /* \"soliproblems/BinarySearch.sol\":186:202  uint256 left = 0 */\n      swap1\n      pop\n        /* \"soliproblems/BinarySearch.sol\":213:226  uint256 right */\n      0x00\n        /* \"soliproblems/BinarySearch.sol\":243:244  1 */\n      0x01\n        /* \"soliproblems/BinarySearch.sol\":229:233  nums */\n      dup6\n        /* \"soliproblems/BinarySearch.sol\":229:240  nums.length */\n      mload\n        /* \"soliproblems/BinarySearch.sol\":229:244  nums.length - 1 */\n      tag_11\n      swap2\n      swap1\n      tag_12\n      jump\t// in\n    tag_11:\n        /* \"soliproblems/BinarySearch.sol\":213:244  uint256 right = nums.length - 1 */\n      swap1\n      pop\n        /* \"soliproblems/BinarySearch.sol\":257:616  while (left <= right) {... */\n    tag_13:\n        /* \"soliproblems/BinarySearch.sol\":272:277  right */\n      dup1\n        /* \"soliproblems/BinarySearch.sol\":264:268  left */\n      dup3\n        /* \"soliproblems/BinarySearch.sol\":264:277  left <= right */\n      gt\n        /* \"soliproblems/BinarySearch.sol\":257:616  while (left <= right) {... */\n      tag_14\n      jumpi\n        /* \"soliproblems/BinarySearch.sol\":344:355  uint256 mid */\n      0x00\n        /* \"soliproblems/BinarySearch.sol\":382:383  2 */\n      0x02\n        /* \"soliproblems/BinarySearch.sol\":374:378  left */\n      dup4\n        /* \"soliproblems/BinarySearch.sol\":366:371  right */\n      dup4\n        /* \"soliproblems/BinarySearch.sol\":366:378  right - left */\n      tag_15\n      swap2\n      swap1\n      tag_12\n      jump\t// in\n    tag_15:\n        /* \"soliproblems/BinarySearch.sol\":365:383  (right - left) / 2 */\n      tag_16\n      swap2\n      swap1\n      tag_17\n      jump\t// in\n    tag_16:\n        /* \"soliproblems/BinarySearch.sol\":358:362  left */\n      dup4\n        /* \"soliproblems/BinarySearch.sol\":358:383  left + (right - left) / 2 */\n      tag_18\n      swap2\n      swap1\n      tag_19\n      jump\t// in\n    tag_18:\n        /* \"soliproblems/BinarySearch.sol\":344:383  uint256 mid = left + (right - left) / 2 */\n      swap1\n      pop\n        /* \"soliproblems/BinarySearch.sol\":417:423  target */\n      dup5\n        /* \"soliproblems/BinarySearch.sol\":404:408  nums */\n      dup7\n        /* \"soliproblems/BinarySearch.sol\":409:412  mid */\n      dup3\n        /* \"soliproblems/BinarySearch.sol\":404:413  nums[mid] */\n      dup2\n      mload\n      dup2\n      lt\n      tag_20\n      jumpi\n      tag_21\n      tag_22\n      jump\t// in\n    tag_21:\n    tag_20:\n      0x20\n      mul\n      0x20\n      add\n      add\n      mload\n        /* \"soliproblems/BinarySearch.sol\":404:423  nums[mid] == target */\n      sub\n        /* \"soliproblems/BinarySearch.sol\":400:605  if (nums[mid] == target) {... */\n      tag_23\n      jumpi\n        /* \"soliproblems/BinarySearch.sol\":451:454  mid */\n      dup1\n        /* \"soliproblems/BinarySearch.sol\":444:454  return mid */\n      swap4\n      pop\n      pop\n      pop\n      pop\n      jump(tag_10)\n        /* \"soliproblems/BinarySearch.sol\":400:605  if (nums[mid] == target) {... */\n    tag_23:\n        /* \"soliproblems/BinarySearch.sol\":492:498  target */\n      dup5\n        /* \"soliproblems/BinarySearch.sol\":480:484  nums */\n      dup7\n        /* \"soliproblems/BinarySearch.sol\":485:488  mid */\n      dup3\n        /* \"soliproblems/BinarySearch.sol\":480:489  nums[mid] */\n      dup2\n      mload\n      dup2\n      lt\n      tag_25\n      jumpi\n      tag_26\n      tag_22\n      jump\t// in\n    tag_26:\n    tag_25:\n      0x20\n      mul\n      0x20\n      add\n      add\n      mload\n        /* \"soliproblems/BinarySearch.sol\":480:498  nums[mid] < target */\n      slt\n        /* \"soliproblems/BinarySearch.sol\":476:605  if (nums[mid] < target) {... */\n      iszero\n      tag_27\n      jumpi\n        /* \"soliproblems/BinarySearch.sol\":532:533  1 */\n      0x01\n        /* \"soliproblems/BinarySearch.sol\":526:529  mid */\n      dup2\n        /* \"soliproblems/BinarySearch.sol\":526:533  mid + 1 */\n      tag_28\n      swap2\n      swap1\n      tag_19\n      jump\t// in\n    tag_28:\n        /* \"soliproblems/BinarySearch.sol\":519:533  left = mid + 1 */\n      swap3\n      pop\n        /* \"soliproblems/BinarySearch.sol\":476:605  if (nums[mid] < target) {... */\n      jump(tag_29)\n    tag_27:\n        /* \"soliproblems/BinarySearch.sol\":588:589  1 */\n      0x01\n        /* \"soliproblems/BinarySearch.sol\":582:585  mid */\n      dup2\n        /* \"soliproblems/BinarySearch.sol\":582:589  mid - 1 */\n      tag_30\n      swap2\n      swap1\n      tag_12\n      jump\t// in\n    tag_30:\n        /* \"soliproblems/BinarySearch.sol\":574:589  right = mid - 1 */\n      swap2\n      pop\n        /* \"soliproblems/BinarySearch.sol\":476:605  if (nums[mid] < target) {... */\n    tag_29:\n        /* \"soliproblems/BinarySearch.sol\":279:616  {... */\n      pop\n        /* \"soliproblems/BinarySearch.sol\":257:616  while (left <= right) {... */\n      jump(tag_13)\n    tag_14:\n        /* \"soliproblems/BinarySearch.sol\":702:719  type(uint256).max */\n      0xffffffffffffffffffffffffffffffffffffffffffffffffffffffffffffffff\n        /* \"soliproblems/BinarySearch.sol\":695:719  return type(uint256).max */\n      swap3\n      pop\n      pop\n      pop\n        /* \"soliproblems/BinarySearch.sol\":92:727  function search(int256[] memory nums, int256 target) public pure returns (uint256) {... */\n    tag_10:\n      swap3\n      swap2\n      pop\n      pop\n      jump\t// out\n        /* \"#utility.yul\":7:82   */\n    tag_31:\n        /* \"#utility.yul\":40:46   */\n      0x00\n        /* \"#utility.yul\":73:75   */\n      0x40\n        /* \"#utility.yul\":67:76   */\n      mload\n        /* \"#utility.yul\":57:76   */\n      swap1\n      pop\n        /* \"#utility.yul\":7:82   */\n      swap1\n      jump\t// out\n        /* \"#utility.yul\":88:205   */\n    tag_32:\n        /* \"#utility.yul\":197:198   */\n      0x00\n        /* \"#utility.yul\":194:195   */\n      0x00\n        /* \"#utility.yul\":187:199   */\n      revert\n        /* \"#utility.yul\":211:328   */\n    tag_33:\n        /* \"#utility.yul\":320:321   */\n      0x00\n        /* \"#utility.yul\":317:318   */\n      0x00\n        /* \"#utility.yul\":310:322   */\n      revert\n        /* \"#utility.yul\":334:451   */\n    tag_34:\n        /* \"#utility.yul\":443:444   */\n      0x00\n        /* \"#utility.yul\":440:441   */\n      0x00\n        /* \"#utility.yul\":433:445   */\n      revert\n        /* \"#utility.yul\":457:559   */\n    tag_35:\n        /* \"#utility.yul\":498:504   */\n      0x00\n        /* \"#utility.yul\":549:551   */\n      0x1f\n        /* \"#utility.yul\":545:552   */\n      not\n        /* \"#utility.yul\":540:542   */\n      0x1f\n        /* \"#utility.yul\":533:538   */\n      dup4\n        /* \"#utility.yul\":529:543   */\n      add\n        /* \"#utility.yul\":525:553   */\n      and\n        /* \"#utility.yul\":515:553   */\n      swap1\n      pop\n        /* \"#utility.yul\":457:559   */\n      swap2\n      swap1\n      pop\n      jump\t// out\n        /* \"#utility.yul\":565:745   */\n    tag_36:\n        /* \"#utility.yul\":613:690   */\n      0x4e487b7100000000000000000000000000000000000000000000000000000000\n        /* \"#utility.yul\":610:611   */\n      0x00\n        /* \"#utility.yul\":603:691   */\n      mstore\n        /* \"#utility.yul\":710:714   */\n      0x41\n        /* \"#utility.yul\":707:708   */\n      0x04\n        /* \"#utility.yul\":700:715   */\n      mstore\n        /* \"#utility.yul\":734:738   */\n      0x24\n        /* \"#utility.yul\":731:732   */\n      0x00\n        /* \"#utility.yul\":724:739   */\n      revert\n        /* \"#utility.yul\":751:1032   */\n    tag_37:\n        /* \"#utility.yul\":834:861   */\n      tag_58\n        /* \"#utility.yul\":856:860   */\n      dup3\n        /* \"#utility.yul\":834:861   */\n      tag_35\n      jump\t// in\n    tag_58:\n        /* \"#utility.yul\":826:832   */\n      dup2\n        /* \"#utility.yul\":822:862   */\n      add\n        /* \"#utility.yul\":964:970   */\n      dup2\n        /* \"#utility.yul\":952:962   */\n      dup2\n        /* \"#utility.yul\":949:971   */\n      lt\n        /* \"#utility.yul\":928:946   */\n      0xffffffffffffffff\n        /* \"#utility.yul\":916:926   */\n      dup3\n        /* \"#utility.yul\":913:947   */\n      gt\n        /* \"#utility.yul\":910:972   */\n      or\n        /* \"#utility.yul\":907:995   */\n      iszero\n      tag_59\n      jumpi\n        /* \"#utility.yul\":975:993   */\n      tag_60\n      tag_36\n      jump\t// in\n    tag_60:\n        /* \"#utility.yul\":907:995   */\n    tag_59:\n        /* \"#utility.yul\":1015:1025   */\n      dup1\n        /* \"#utility.yul\":1011:1013   */\n      0x40\n        /* \"#utility.yul\":1004:1026   */\n      mstore\n        /* \"#utility.yul\":794:1032   */\n      pop\n        /* \"#utility.yul\":751:1032   */\n      pop\n      pop\n      jump\t// out\n        /* \"#utility.yul\":1038:1167   */\n    tag_38:\n        /* \"#utility.yul\":1072:1078   */\n      0x00\n        /* \"#utility.yul\":1099:1119   */\n      tag_62\n      tag_31\n      jump\t// in\n    tag_62:\n        /* \"#utility.yul\":1089:1119   */\n      swap1\n      pop\n        /* \"#utility.yul\":1128:1161   */\n      tag_63\n        /* \"#utility.yul\":1156:1160   */\n      dup3\n        /* \"#utility.yul\":1148:1154   */\n      dup3\n        /* \"#utility.yul\":1128:1161   */\n      tag_37\n      jump\t// in\n    tag_63:\n        /* \"#utility.yul\":1038:1167   */\n      swap2\n      swap1\n      pop\n      jump\t// out\n        /* \"#utility.yul\":1173:1483   */\n    tag_39:\n        /* \"#utility.yul\":1249:1253   */\n      0x00\n        /* \"#utility.yul\":1339:1357   */\n      0xffffffffffffffff\n        /* \"#utility.yul\":1331:1337   */\n      dup3\n        /* \"#utility.yul\":1328:1358   */\n      gt\n        /* \"#utility.yul\":1325:1381   */\n      iszero\n      tag_65\n      jumpi\n        /* \"#utility.yul\":1361:1379   */\n      tag_66\n      tag_36\n      jump\t// in\n    tag_66:\n        /* \"#utility.yul\":1325:1381   */\n    tag_65:\n        /* \"#utility.yul\":1411:1415   */\n      0x20\n        /* \"#utility.yul\":1403:1409   */\n      dup3\n        /* \"#utility.yul\":1399:1416   */\n      mul\n        /* \"#utility.yul\":1391:1416   */\n      swap1\n      pop\n        /* \"#utility.yul\":1471:1475   */\n      0x20\n        /* \"#utility.yul\":1465:1469   */\n      dup2\n        /* \"#utility.yul\":1461:1476   */\n      add\n        /* \"#utility.yul\":1453:1476   */\n      swap1\n      pop\n        /* \"#utility.yul\":1173:1483   */\n      swap2\n      swap1\n      pop\n      jump\t// out\n        /* \"#utility.yul\":1489:1606   */\n    tag_40:\n        /* \"#utility.yul\":1598:1599   */\n      0x00\n        /* \"#utility.yul\":1595:1596   */\n      0x00\n        /* \"#utility.yul\":1588:1600   */\n      revert\n        /* \"#utility.yul\":1612:1688   */\n    tag_41:\n        /* \"#utility.yul\":1648:1655   */\n      0x00\n        /* \"#utility.yul\":1677:1682   */\n      dup2\n        /* \"#utility.yul\":1666:1682   */\n      swap1\n      pop\n        /* \"#utility.yul\":1612:1688   */\n      swap2\n      swap1\n      pop\n      jump\t// out\n        /* \"#utility.yul\":1694:1814   */\n    tag_42:\n        /* \"#utility.yul\":1766:1789   */\n      tag_70\n        /* \"#utility.yul\":1783:1788   */\n      dup2\n        /* \"#utility.yul\":1766:1789   */\n      tag_41\n      jump\t// in\n    tag_70:\n        /* \"#utility.yul\":1759:1764   */\n      dup2\n        /* \"#utility.yul\":1756:1790   */\n      eq\n        /* \"#utility.yul\":1746:1808   */\n      tag_71\n      jumpi\n        /* \"#utility.yul\":1804:1805   */\n      0x00\n        /* \"#utility.yul\":1801:1802   */\n      0x00\n        /* \"#utility.yul\":1794:1806   */\n      revert\n        /* \"#utility.yul\":1746:1808   */\n    tag_71:\n        /* \"#utility.yul\":1694:1814   */\n      pop\n      jump\t// out\n        /* \"#utility.yul\":1820:1957   */\n    tag_43:\n        /* \"#utility.yul\":1865:1870   */\n      0x00\n        /* \"#utility.yul\":1903:1909   */\n      dup2\n        /* \"#utility.yul\":1890:1910   */\n      calldataload\n        /* \"#utility.yul\":1881:1910   */\n      swap1\n      pop\n        /* \"#utility.yul\":1919:1951   */\n      tag_73\n        /* \"#utility.yul\":1945:1950   */\n      dup2\n        /* \"#utility.yul\":1919:1951   */\n      tag_42\n      jump\t// in\n    tag_73:\n        /* \"#utility.yul\":1820:1957   */\n      swap3\n      swap2\n      pop\n      pop\n      jump\t// out\n        /* \"#utility.yul\":1979:2686   */\n    tag_44:\n        /* \"#utility.yul\":2074:2079   */\n      0x00\n        /* \"#utility.yul\":2099:2179   */\n      tag_75\n        /* \"#utility.yul\":2115:2178   */\n      tag_76\n        /* \"#utility.yul\":2171:2177   */\n      dup5\n        /* \"#utility.yul\":2115:2178   */\n      tag_39\n      jump\t// in\n    tag_76:\n        /* \"#utility.yul\":2099:2179   */\n      tag_38\n      jump\t// in\n    tag_75:\n        /* \"#utility.yul\":2090:2179   */\n      swap1\n      pop\n        /* \"#utility.yul\":2199:2204   */\n      dup1\n        /* \"#utility.yul\":2228:2234   */\n      dup4\n        /* \"#utility.yul\":2221:2226   */\n      dup3\n        /* \"#utility.yul\":2214:2235   */\n      mstore\n        /* \"#utility.yul\":2262:2266   */\n      0x20\n        /* \"#utility.yul\":2255:2260   */\n      dup3\n        /* \"#utility.yul\":2251:2267   */\n      add\n        /* \"#utility.yul\":2244:2267   */\n      swap1\n      pop\n        /* \"#utility.yul\":2315:2319   */\n      0x20\n        /* \"#utility.yul\":2307:2313   */\n      dup5\n        /* \"#utility.yul\":2303:2320   */\n      mul\n        /* \"#utility.yul\":2295:2301   */\n      dup4\n        /* \"#utility.yul\":2291:2321   */\n      add\n        /* \"#utility.yul\":2344:2347   */\n      dup6\n        /* \"#utility.yul\":2336:2342   */\n      dup2\n        /* \"#utility.yul\":2333:2348   */\n      gt\n        /* \"#utility.yul\":2330:2452   */\n      iszero\n      tag_77\n      jumpi\n        /* \"#utility.yul\":2363:2442   */\n      tag_78\n      tag_40\n      jump\t// in\n    tag_78:\n        /* \"#utility.yul\":2330:2452   */\n    tag_77:\n        /* \"#utility.yul\":2478:2484   */\n      dup4\n        /* \"#utility.yul\":2461:2680   */\n    tag_79:\n        /* \"#utility.yul\":2495:2501   */\n      dup2\n        /* \"#utility.yul\":2490:2493   */\n      dup2\n        /* \"#utility.yul\":2487:2502   */\n      lt\n        /* \"#utility.yul\":2461:2680   */\n      iszero\n      tag_81\n      jumpi\n        /* \"#utility.yul\":2570:2573   */\n      dup1\n        /* \"#utility.yul\":2599:2635   */\n      tag_82\n        /* \"#utility.yul\":2631:2634   */\n      dup9\n        /* \"#utility.yul\":2619:2629   */\n      dup3\n        /* \"#utility.yul\":2599:2635   */\n      tag_43\n      jump\t// in\n    tag_82:\n        /* \"#utility.yul\":2594:2597   */\n      dup5\n        /* \"#utility.yul\":2587:2636   */\n      mstore\n        /* \"#utility.yul\":2665:2669   */\n      0x20\n        /* \"#utility.yul\":2660:2663   */\n      dup5\n        /* \"#utility.yul\":2656:2670   */\n      add\n        /* \"#utility.yul\":2649:2670   */\n      swap4\n      pop\n        /* \"#utility.yul\":2537:2680   */\n      pop\n        /* \"#utility.yul\":2521:2525   */\n      0x20\n        /* \"#utility.yul\":2516:2519   */\n      dup2\n        /* \"#utility.yul\":2512:2526   */\n      add\n        /* \"#utility.yul\":2505:2526   */\n      swap1\n      pop\n        /* \"#utility.yul\":2461:2680   */\n      jump(tag_79)\n    tag_81:\n        /* \"#utility.yul\":2465:2486   */\n      pop\n        /* \"#utility.yul\":2080:2686   */\n      pop\n      pop\n        /* \"#utility.yul\":1979:2686   */\n      swap4\n      swap3\n      pop\n      pop\n      pop\n      jump\t// out\n        /* \"#utility.yul\":2708:3076   */\n    tag_45:\n        /* \"#utility.yul\":2778:2783   */\n      0x00\n        /* \"#utility.yul\":2827:2830   */\n      dup3\n        /* \"#utility.yul\":2820:2824   */\n      0x1f\n        /* \"#utility.yul\":2812:2818   */\n      dup4\n        /* \"#utility.yul\":2808:2825   */\n      add\n        /* \"#utility.yul\":2804:2831   */\n      slt\n        /* \"#utility.yul\":2794:2916   */\n      tag_84\n      jumpi\n        /* \"#utility.yul\":2835:2914   */\n      tag_85\n      tag_34\n      jump\t// in\n    tag_85:\n        /* \"#utility.yul\":2794:2916   */\n    tag_84:\n        /* \"#utility.yul\":2952:2958   */\n      dup2\n        /* \"#utility.yul\":2939:2959   */\n      calldataload\n        /* \"#utility.yul\":2977:3070   */\n      tag_86\n        /* \"#utility.yul\":3066:3069   */\n      dup5\n        /* \"#utility.yul\":3058:3064   */\n      dup3\n        /* \"#utility.yul\":3051:3055   */\n      0x20\n        /* \"#utility.yul\":3043:3049   */\n      dup7\n        /* \"#utility.yul\":3039:3056   */\n      add\n        /* \"#utility.yul\":2977:3070   */\n      tag_44\n      jump\t// in\n    tag_86:\n        /* \"#utility.yul\":2968:3070   */\n      swap2\n      pop\n        /* \"#utility.yul\":2784:3076   */\n      pop\n        /* \"#utility.yul\":2708:3076   */\n      swap3\n      swap2\n      pop\n      pop\n      jump\t// out\n        /* \"#utility.yul\":3082:3762   */\n    tag_6:\n        /* \"#utility.yul\":3173:3179   */\n      0x00\n        /* \"#utility.yul\":3181:3187   */\n      0x00\n        /* \"#utility.yul\":3230:3232   */\n      0x40\n        /* \"#utility.yul\":3218:3227   */\n      dup4\n        /* \"#utility.yul\":3209:3216   */\n      dup6\n        /* \"#utility.yul\":3205:3228   */\n      sub\n        /* \"#utility.yul\":3201:3233   */\n      slt\n        /* \"#utility.yul\":3198:3317   */\n      iszero\n      tag_88\n      jumpi\n        /* \"#utility.yul\":3236:3315   */\n      tag_89\n      tag_32\n      jump\t// in\n    tag_89:\n        /* \"#utility.yul\":3198:3317   */\n    tag_88:\n        /* \"#utility.yul\":3384:3385   */\n      0x00\n        /* \"#utility.yul\":3373:3382   */\n      dup4\n        /* \"#utility.yul\":3369:3386   */\n      add\n        /* \"#utility.yul\":3356:3387   */\n      calldataload\n        /* \"#utility.yul\":3414:3432   */\n      0xffffffffffffffff\n        /* \"#utility.yul\":3406:3412   */\n      dup2\n        /* \"#utility.yul\":3403:3433   */\n      gt\n        /* \"#utility.yul\":3400:3517   */\n      iszero\n      tag_90\n      jumpi\n        /* \"#utility.yul\":3436:3515   */\n      tag_91\n      tag_33\n      jump\t// in\n    tag_91:\n        /* \"#utility.yul\":3400:3517   */\n    tag_90:\n        /* \"#utility.yul\":3541:3618   */\n      tag_92\n        /* \"#utility.yul\":3610:3617   */\n      dup6\n        /* \"#utility.yul\":3601:3607   */\n      dup3\n        /* \"#utility.yul\":3590:3599   */\n      dup7\n        /* \"#utility.yul\":3586:3608   */\n      add\n        /* \"#utility.yul\":3541:3618   */\n      tag_45\n      jump\t// in\n    tag_92:\n        /* \"#utility.yul\":3531:3618   */\n      swap3\n      pop\n        /* \"#utility.yul\":3327:3628   */\n      pop\n        /* \"#utility.yul\":3667:3669   */\n      0x20\n        /* \"#utility.yul\":3693:3745   */\n      tag_93\n        /* \"#utility.yul\":3737:3744   */\n      dup6\n        /* \"#utility.yul\":3728:3734   */\n      dup3\n        /* \"#utility.yul\":3717:3726   */\n      dup7\n        /* \"#utility.yul\":3713:3735   */\n      add\n        /* \"#utility.yul\":3693:3745   */\n      tag_43\n      jump\t// in\n    tag_93:\n        /* \"#utility.yul\":3683:3745   */\n      swap2\n      pop\n        /* \"#utility.yul\":3638:3755   */\n      pop\n        /* \"#utility.yul\":3082:3762   */\n      swap3\n      pop\n      swap3\n      swap1\n      pop\n      jump\t// out\n        /* \"#utility.yul\":3768:3845   */\n    tag_46:\n        /* \"#utility.yul\":3805:3812   */\n      0x00\n        /* \"#utility.yul\":3834:3839   */\n      dup2\n        /* \"#utility.yul\":3823:3839   */\n      swap1\n      pop\n        /* \"#utility.yul\":3768:3845   */\n      swap2\n      swap1\n      pop\n      jump\t// out\n        /* \"#utility.yul\":3851:3969   */\n    tag_47:\n        /* \"#utility.yul\":3938:3962   */\n      tag_96\n        /* \"#utility.yul\":3956:3961   */\n      dup2\n        /* \"#utility.yul\":3938:3962   */\n      tag_46\n      jump\t// in\n    tag_96:\n        /* \"#utility.yul\":3933:3936   */\n      dup3\n        /* \"#utility.yul\":3926:3963   */\n      mstore\n        /* \"#utility.yul\":3851:3969   */\n      pop\n      pop\n      jump\t// out\n        /* \"#utility.yul\":3975:4197   */\n    tag_9:\n        /* \"#utility.yul\":4068:4072   */\n      0x00\n        /* \"#utility.yul\":4106:4108   */\n      0x20\n        /* \"#utility.yul\":4095:4104   */\n      dup3\n        /* \"#utility.yul\":4091:4109   */\n      add\n        /* \"#utility.yul\":4083:4109   */\n      swap1\n      pop\n        /* \"#utility.yul\":4119:4190   */\n      tag_98\n        /* \"#utility.yul\":4187:4188   */\n      0x00\n        /* \"#utility.yul\":4176:4185   */\n      dup4\n        /* \"#utility.yul\":4172:4189   */\n      add\n        /* \"#utility.yul\":4163:4169   */\n      dup5\n        /* \"#utility.yul\":4119:4190   */\n      tag_47\n      jump\t// in\n    tag_98:\n        /* \"#utility.yul\":3975:4197   */\n      swap3\n      swap2\n      pop\n      pop\n      jump\t// out\n        /* \"#utility.yul\":4203:4383   */\n    tag_48:\n        /* \"#utility.yul\":4251:4328   */\n      0x4e487b7100000000000000000000000000000000000000000000000000000000\n        /* \"#utility.yul\":4248:4249   */\n      0x00\n        /* \"#utility.yul\":4241:4329   */\n      mstore\n        /* \"#utility.yul\":4348:4352   */\n      0x11\n        /* \"#utility.yul\":4345:4346   */\n      0x04\n        /* \"#utility.yul\":4338:4353   */\n      mstore\n        /* \"#utility.yul\":4372:4376   */\n      0x24\n        /* \"#utility.yul\":4369:4370   */\n      0x00\n        /* \"#utility.yul\":4362:4377   */\n      revert\n        /* \"#utility.yul\":4389:4583   */\n    tag_12:\n        /* \"#utility.yul\":4429:4433   */\n      0x00\n        /* \"#utility.yul\":4449:4469   */\n      tag_101\n        /* \"#utility.yul\":4467:4468   */\n      dup3\n        /* \"#utility.yul\":4449:4469   */\n      tag_46\n      jump\t// in\n    tag_101:\n        /* \"#utility.yul\":4444:4469   */\n      swap2\n      pop\n        /* \"#utility.yul\":4483:4503   */\n      tag_102\n        /* \"#utility.yul\":4501:4502   */\n      dup4\n        /* \"#utility.yul\":4483:4503   */\n      tag_46\n      jump\t// in\n    tag_102:\n        /* \"#utility.yul\":4478:4503   */\n      swap3\n      pop\n        /* \"#utility.yul\":4527:4528   */\n      dup3\n        /* \"#utility.yul\":4524:4525   */\n      dup3\n        /* \"#utility.yul\":4520:4529   */\n      sub\n        /* \"#utility.yul\":4512:4529   */\n      swap1\n      pop\n        /* \"#utility.yul\":4551:4552   */\n      dup2\n        /* \"#utility.yul\":4545:4549   */\n      dup2\n        /* \"#utility.yul\":4542:4553   */\n      gt\n        /* \"#utility.yul\":4539:4576   */\n      iszero\n      tag_103\n      jumpi\n        /* \"#utility.yul\":4556:4574   */\n      tag_104\n      tag_48\n      jump\t// in\n    tag_104:\n        /* \"#utility.yul\":4539:4576   */\n    tag_103:\n        /* \"#utility.yul\":4389:4583   */\n      swap3\n      swap2\n      pop\n      pop\n      jump\t// out\n        /* \"#utility.yul\":4589:4769   */\n    tag_49:\n        /* \"#utility.yul\":4637:4714   */\n      0x4e487b7100000000000000000000000000000000000000000000000000000000\n        /* \"#utility.yul\":4634:4635   */\n      0x00\n        /* \"#utility.yul\":4627:4715   */\n      mstore\n        /* \"#utility.yul\":4734:4738   */\n      0x12\n        /* \"#utility.yul\":4731:4732   */\n      0x04\n        /* \"#utility.yul\":4724:4739   */\n      mstore\n        /* \"#utility.yul\":4758:4762   */\n      0x24\n        /* \"#utility.yul\":4755:4756   */\n      0x00\n        /* \"#utility.yul\":4748:4763   */\n      revert\n        /* \"#utility.yul\":4775:4960   */\n    tag_17:\n        /* \"#utility.yul\":4815:4816   */\n      0x00\n        /* \"#utility.yul\":4832:4852   */\n      tag_107\n        /* \"#utility.yul\":4850:4851   */\n      dup3\n        /* \"#utility.yul\":4832:4852   */\n      tag_46\n      jump\t// in\n    tag_107:\n        /* \"#utility.yul\":4827:4852   */\n      swap2\n      pop\n        /* \"#utility.yul\":4866:4886   */\n      tag_108\n        /* \"#utility.yul\":4884:4885   */\n      dup4\n        /* \"#utility.yul\":4866:4886   */\n      tag_46\n      jump\t// in\n    tag_108:\n        /* \"#utility.yul\":4861:4886   */\n      swap3\n      pop\n        /* \"#utility.yul\":4905:4906   */\n      dup3\n        /* \"#utility.yul\":4895:4930   */\n      tag_109\n      jumpi\n        /* \"#utility.yul\":4910:4928   */\n      tag_110\n      tag_49\n      jump\t// in\n    tag_110:\n        /* \"#utility.yul\":4895:4930   */\n    tag_109:\n        /* \"#utility.yul\":4952:4953   */\n      dup3\n        /* \"#utility.yul\":4949:4950   */\n      dup3\n        /* \"#utility.yul\":4945:4954   */\n      div\n        /* \"#utility.yul\":4940:4954   */\n      swap1\n      pop\n        /* \"#utility.yul\":4775:4960   */\n      swap3\n      swap2\n      pop\n      pop\n      jump\t// out\n        /* \"#utility.yul\":4966:5157   */\n    tag_19:\n        /* \"#utility.yul\":5006:5009   */\n      0x00\n        /* \"#utility.yul\":5025:5045   */\n      tag_112\n        /* \"#utility.yul\":5043:5044   */\n      dup3\n        /* \"#utility.yul\":5025:5045   */\n      tag_46\n      jump\t// in\n    tag_112:\n        /* \"#utility.yul\":5020:5045   */\n      swap2\n      pop\n        /* \"#utility.yul\":5059:5079   */\n      tag_113\n        /* \"#utility.yul\":5077:5078   */\n      dup4\n        /* \"#utility.yul\":5059:5079   */\n      tag_46\n      jump\t// in\n    tag_113:\n        /* \"#utility.yul\":5054:5079   */\n      swap3\n      pop\n        /* \"#utility.yul\":5102:5103   */\n      dup3\n        /* \"#utility.yul\":5099:5100   */\n      dup3\n        /* \"#utility.yul\":5095:5104   */\n      add\n        /* \"#utility.yul\":5088:5104   */\n      swap1\n      pop\n        /* \"#utility.yul\":5123:5126   */\n      dup1\n        /* \"#utility.yul\":5120:5121   */\n      dup3\n        /* \"#utility.yul\":5117:5127   */\n      gt\n        /* \"#utility.yul\":5114:5150   */\n      iszero\n      tag_114\n      jumpi\n        /* \"#utility.yul\":5130:5148   */\n      tag_115\n      tag_48\n      jump\t// in\n    tag_115:\n        /* \"#utility.yul\":5114:5150   */\n    tag_114:\n        /* \"#utility.yul\":4966:5157   */\n      swap3\n      swap2\n      pop\n      pop\n      jump\t// out\n        /* \"#utility.yul\":5163:5343   */\n    tag_22:\n        /* \"#utility.yul\":5211:5288   */\n      0x4e487b7100000000000000000000000000000000000000000000000000000000\n        /* \"#utility.yul\":5208:5209   */\n      0x00\n        /* \"#utility.yul\":5201:5289   */\n      mstore\n        /* \"#utility.yul\":5308:5312   */\n      0x32\n        /* \"#utility.yul\":5305:5306   */\n      0x04\n        /* \"#utility.yul\":5298:5313   */\n      mstore\n        /* \"#utility.yul\":5332:5336   */\n      0x24\n        /* \"#utility.yul\":5329:5330   */\n      0x00\n        /* \"#utility.yul\":5322:5337   */\n      revert\n\n    auxdata: 0xa264697066735822122040fb1964bdbfbd26c3c935420f319fdc935be616d0fbc11b0a18f83634cc2c4f64736f6c634300081e0033\n}\n",
				"bytecode": {
					"linkReferences": {},
					"object": "6080604052348015600e575f5ffd5b506104b78061001c5f395ff3fe608060405234801561000f575f5ffd5b5060043610610029575f3560e01c8063066a7e601461002d575b5f5ffd5b610047600480360381019061004291906102d9565b61005d565b604051610054919061034b565b60405180910390f35b5f5f5f90505f600185516100719190610391565b90505b808211610119575f6002838361008a9190610391565b61009491906103f1565b8361009f9190610421565b9050848682815181106100b5576100b4610454565b5b6020026020010151036100cd5780935050505061013f565b848682815181106100e1576100e0610454565b5b60200260200101511215610103576001816100fc9190610421565b9250610113565b6001816101109190610391565b91505b50610074565b7fffffffffffffffffffffffffffffffffffffffffffffffffffffffffffffffff925050505b92915050565b5f604051905090565b5f5ffd5b5f5ffd5b5f5ffd5b5f601f19601f8301169050919050565b7f4e487b71000000000000000000000000000000000000000000000000000000005f52604160045260245ffd5b6101a08261015a565b810181811067ffffffffffffffff821117156101bf576101be61016a565b5b80604052505050565b5f6101d1610145565b90506101dd8282610197565b919050565b5f67ffffffffffffffff8211156101fc576101fb61016a565b5b602082029050602081019050919050565b5f5ffd5b5f819050919050565b61022381610211565b811461022d575f5ffd5b50565b5f8135905061023e8161021a565b92915050565b5f610256610251846101e2565b6101c8565b905080838252602082019050602084028301858111156102795761027861020d565b5b835b818110156102a2578061028e8882610230565b84526020840193505060208101905061027b565b5050509392505050565b5f82601f8301126102c0576102bf610156565b5b81356102d0848260208601610244565b91505092915050565b5f5f604083850312156102ef576102ee61014e565b5b5f83013567ffffffffffffffff81111561030c5761030b610152565b5b610318858286016102ac565b925050602061032985828601610230565b9150509250929050565b5f819050919050565b61034581610333565b82525050565b5f60208201905061035e5f83018461033c565b92915050565b7f4e487b71000000000000000000000000000000000000000000000000000000005f52601160045260245ffd5b5f61039b82610333565b91506103a683610333565b92508282039050818111156103be576103bd610364565b5b92915050565b7f4e487b71000000000000000000000000000000000000000000000000000000005f52601260045260245ffd5b5f6103fb82610333565b915061040683610333565b925082610416576104156103c4565b5b828204905092915050565b5f61042b82610333565b915061043683610333565b925082820190508082111561044e5761044d610364565b5b92915050565b7f4e487b71000000000000000000000000000000000000000000000000000000005f52603260045260245ffdfea264697066735822122040fb1964bdbfbd26c3c935420f319fdc935be616d0fbc11b0a18f83634cc2c4f64736f6c634300081e0033",
					"opcodes": "PUSH1 0x80 PUSH1 0x40 MSTORE CALLVALUE DUP1 ISZERO PUSH1 0xE JUMPI PUSH0 PUSH0 REVERT JUMPDEST POP PUSH2 0x4B7 DUP1 PUSH2 0x1C PUSH0 CODECOPY PUSH0 RETURN INVALID PUSH1 0x80 PUSH1 0x40 MSTORE CALLVALUE DUP1 ISZERO PUSH2 0xF JUMPI PUSH0 PUSH0 REVERT JUMPDEST POP PUSH1 0x4 CALLDATASIZE LT PUSH2 0x29 JUMPI PUSH0 CALLDATALOAD PUSH1 0xE0 SHR DUP1 PUSH4 0x66A7E60 EQ PUSH2 0x2D JUMPI JUMPDEST PUSH0 PUSH0 REVERT JUMPDEST PUSH2 0x47 PUSH1 0x4 DUP1 CALLDATASIZE SUB DUP2 ADD SWAP1 PUSH2 0x42 SWAP2 SWAP1 PUSH2 0x2D9 JUMP JUMPDEST PUSH2 0x5D JUMP JUMPDEST PUSH1 0x40 MLOAD PUSH2 0x54 SWAP2 SWAP1 PUSH2 0x34B JUMP JUMPDEST PUSH1 0x40 MLOAD DUP1 SWAP2 SUB SWAP1 RETURN JUMPDEST PUSH0 PUSH0 PUSH0 SWAP1 POP PUSH0 PUSH1 0x1 DUP6 MLOAD PUSH2 0x71 SWAP2 SWAP1 PUSH2 0x391 JUMP JUMPDEST SWAP1 POP JUMPDEST DUP1 DUP3 GT PUSH2 0x119 JUMPI PUSH0 PUSH1 0x2 DUP4 DUP4 PUSH2 0x8A SWAP2 SWAP1 PUSH2 0x391 JUMP JUMPDEST PUSH2 0x94 SWAP2 SWAP1 PUSH2 0x3F1 JUMP JUMPDEST DUP4 PUSH2 0x9F SWAP2 SWAP1 PUSH2 0x421 JUMP JUMPDEST SWAP1 POP DUP5 DUP7 DUP3 DUP2 MLOAD DUP2 LT PUSH2 0xB5 JUMPI PUSH2 0xB4 PUSH2 0x454 JUMP JUMPDEST JUMPDEST PUSH1 0x20 MUL PUSH1 0x20 ADD ADD MLOAD SUB PUSH2 0xCD JUMPI DUP1 SWAP4 POP POP POP POP PUSH2 0x13F JUMP JUMPDEST DUP5 DUP7 DUP3 DUP2 MLOAD DUP2 LT PUSH2 0xE1 JUMPI PUSH2 0xE0 PUSH2 0x454 JUMP JUMPDEST JUMPDEST PUSH1 0x20 MUL PUSH1 0x20 ADD ADD MLOAD SLT ISZERO PUSH2 0x103 JUMPI PUSH1 0x1 DUP2 PUSH2 0xFC SWAP2 SWAP1 PUSH2 0x421 JUMP JUMPDEST SWAP3 POP PUSH2 0x113 JUMP JUMPDEST PUSH1 0x1 DUP2 PUSH2 0x110 SWAP2 SWAP1 PUSH2 0x391 JUMP JUMPDEST SWAP2 POP JUMPDEST POP PUSH2 0x74 JUMP JUMPDEST PUSH32 0xFFFFFFFFFFFFFFFFFFFFFFFFFFFFFFFFFFFFFFFFFFFFFFFFFFFFFFFFFFFFFFFF SWAP3 POP POP POP JUMPDEST SWAP3 SWAP2 POP POP JUMP JUMPDEST PUSH0 PUSH1 0x40 MLOAD SWAP1 POP SWAP1 JUMP JUMPDEST PUSH0 PUSH0 REVERT JUMPDEST PUSH0 PUSH0 REVERT JUMPDEST PUSH0 PUSH0 REVERT JUMPDEST PUSH0 PUSH1 0x1F NOT PUSH1 0x1F DUP4 ADD AND SWAP1 POP SWAP2 SWAP1 POP JUMP JUMPDEST PUSH32 0x4E487B7100000000000000000000000000000000000000000000000000000000 PUSH0 MSTORE PUSH1 0x41 PUSH1 0x4 MSTORE PUSH1 0x24 PUSH0 REVERT JUMPDEST PUSH2 0x1A0 DUP3 PUSH2 0x15A JUMP JUMPDEST DUP2 ADD DUP2 DUP2 LT PUSH8 0xFFFFFFFFFFFFFFFF DUP3 GT OR ISZERO PUSH2 0x1BF JUMPI PUSH2 0x1BE PUSH2 0x16A JUMP JUMPDEST JUMPDEST DUP1 PUSH1 0x40 MSTORE POP POP POP JUMP JUMPDEST PUSH0 PUSH2 0x1D1 PUSH2 0x145 JUMP JUMPDEST SWAP1 POP PUSH2 0x1DD DUP3 DUP3 PUSH2 0x197 JUMP JUMPDEST SWAP2 SWAP1 POP JUMP JUMPDEST PUSH0 PUSH8 0xFFFFFFFFFFFFFFFF DUP3 GT ISZERO PUSH2 0x1FC JUMPI PUSH2 0x1FB PUSH2 0x16A JUMP JUMPDEST JUMPDEST PUSH1 0x20 DUP3 MUL SWAP1 POP PUSH1 0x20 DUP2 ADD SWAP1 POP SWAP2 SWAP1 POP JUMP JUMPDEST PUSH0 PUSH0 REVERT JUMPDEST PUSH0 DUP2 SWAP1 POP SWAP2 SWAP1 POP JUMP JUMPDEST PUSH2 0x223 DUP2 PUSH2 0x211 JUMP JUMPDEST DUP2 EQ PUSH2 0x22D JUMPI PUSH0 PUSH0 REVERT JUMPDEST POP JUMP JUMPDEST PUSH0 DUP2 CALLDATALOAD SWAP1 POP PUSH2 0x23E DUP2 PUSH2 0x21A JUMP JUMPDEST SWAP3 SWAP2 POP POP JUMP JUMPDEST PUSH0 PUSH2 0x256 PUSH2 0x251 DUP5 PUSH2 0x1E2 JUMP JUMPDEST PUSH2 0x1C8 JUMP JUMPDEST SWAP1 POP DUP1 DUP4 DUP3 MSTORE PUSH1 0x20 DUP3 ADD SWAP1 POP PUSH1 0x20 DUP5 MUL DUP4 ADD DUP6 DUP2 GT ISZERO PUSH2 0x279 JUMPI PUSH2 0x278 PUSH2 0x20D JUMP JUMPDEST JUMPDEST DUP4 JUMPDEST DUP2 DUP2 LT ISZERO PUSH2 0x2A2 JUMPI DUP1 PUSH2 0x28E DUP9 DUP3 PUSH2 0x230 JUMP JUMPDEST DUP5 MSTORE PUSH1 0x20 DUP5 ADD SWAP4 POP POP PUSH1 0x20 DUP2 ADD SWAP1 POP PUSH2 0x27B JUMP JUMPDEST POP POP POP SWAP4 SWAP3 POP POP POP JUMP JUMPDEST PUSH0 DUP3 PUSH1 0x1F DUP4 ADD SLT PUSH2 0x2C0 JUMPI PUSH2 0x2BF PUSH2 0x156 JUMP JUMPDEST JUMPDEST DUP2 CALLDATALOAD PUSH2 0x2D0 DUP5 DUP3 PUSH1 0x20 DUP7 ADD PUSH2 0x244 JUMP JUMPDEST SWAP2 POP POP SWAP3 SWAP2 POP POP JUMP JUMPDEST PUSH0 PUSH0 PUSH1 0x40 DUP4 DUP6 SUB SLT ISZERO PUSH2 0x2EF JUMPI PUSH2 0x2EE PUSH2 0x14E JUMP JUMPDEST JUMPDEST PUSH0 DUP4 ADD CALLDATALOAD PUSH8 0xFFFFFFFFFFFFFFFF DUP2 GT ISZERO PUSH2 0x30C JUMPI PUSH2 0x30B PUSH2 0x152 JUMP JUMPDEST JUMPDEST PUSH2 0x318 DUP6 DUP3 DUP7 ADD PUSH2 0x2AC JUMP JUMPDEST SWAP3 POP POP PUSH1 0x20 PUSH2 0x329 DUP6 DUP3 DUP7 ADD PUSH2 0x230 JUMP JUMPDEST SWAP2 POP POP SWAP3 POP SWAP3 SWAP1 POP JUMP JUMPDEST PUSH0 DUP2 SWAP1 POP SWAP2 SWAP1 POP JUMP JUMPDEST PUSH2 0x345 DUP2 PUSH2 0x333 JUMP JUMPDEST DUP3 MSTORE POP POP JUMP JUMPDEST PUSH0 PUSH1 0x20 DUP3 ADD SWAP1 POP PUSH2 0x35E PUSH0 DUP4 ADD DUP5 PUSH2 0x33C JUMP JUMPDEST SWAP3 SWAP2 POP POP JUMP JUMPDEST PUSH32 0x4E487B7100000000000000000000000000000000000000000000000000000000 PUSH0 MSTORE PUSH1 0x11 PUSH1 0x4 MSTORE PUSH1 0x24 PUSH0 REVERT JUMPDEST PUSH0 PUSH2 0x39B DUP3 PUSH2 0x333 JUMP JUMPDEST SWAP2 POP PUSH2 0x3A6 DUP4 PUSH2 0x333 JUMP JUMPDEST SWAP3 POP DUP3 DUP3 SUB SWAP1 POP DUP2 DUP2 GT ISZERO PUSH2 0x3BE JUMPI PUSH2 0x3BD PUSH2 0x364 JUMP JUMPDEST JUMPDEST SWAP3 SWAP2 POP POP JUMP JUMPDEST PUSH32 0x4E487B7100000000000000000000000000000000000000000000000000000000 PUSH0 MSTORE PUSH1 0x12 PUSH1 0x4 MSTORE PUSH1 0x24 PUSH0 REVERT JUMPDEST PUSH0 PUSH2 0x3FB DUP3 PUSH2 0x333 JUMP JUMPDEST SWAP2 POP PUSH2 0x406 DUP4 PUSH2 0x333 JUMP JUMPDEST SWAP3 POP DUP3 PUSH2 0x416 JUMPI PUSH2 0x415 PUSH2 0x3C4 JUMP JUMPDEST JUMPDEST DUP3 DUP3 DIV SWAP1 POP SWAP3 SWAP2 POP POP JUMP JUMPDEST PUSH0 PUSH2 0x42B DUP3 PUSH2 0x333 JUMP JUMPDEST SWAP2 POP PUSH2 0x436 DUP4 PUSH2 0x333 JUMP JUMPDEST SWAP3 POP DUP3 DUP3 ADD SWAP1 POP DUP1 DUP3 GT ISZERO PUSH2 0x44E JUMPI PUSH2 0x44D PUSH2 0x364 JUMP JUMPDEST JUMPDEST SWAP3 SWAP2 POP POP JUMP JUMPDEST PUSH32 0x4E487B7100000000000000000000000000000000000000000000000000000000 PUSH0 MSTORE PUSH1 0x32 PUSH1 0x4 MSTORE PUSH1 0x24 PUSH0 REVERT INVALID LOG2 PUSH5 0x6970667358 0x22 SLT KECCAK256 BLOCKHASH EXTSTATICCALL NOT PUSH5 0xBDBFBD26C3 0xC9 CALLDATALOAD TIMESTAMP 0xF BALANCE SWAP16 0xDC SWAP4 JUMPDEST DUPN 0x16 0xD0 EXTSTATICCALL 0xC1 SHL EXP XOR EXTCALL CALLDATASIZE CALLVALUE 0xCC 0x2C 0x4F PUSH5 0x736F6C6343 STOP ADDMOD 0x1E STOP CALLER "
				},
				"gasEstimates": {
					"creation": {
						"codeDepositCost": "241400",
						"executionCost": "279",
						"totalCost": "241679"
					},
					"external": {
						"search(int256[],int256)": "infinite"
					}
				},
				"methodIdentifiers": {
					"search(int256[],int256)": "066a7e60"
				}
			},
			"storageLayout": {
				"storage": [],
				"types": null
			},
			"userdoc": {
				"kind": "user",
				"methods": {},
				"version": 1
			}
		}
	}
}