{
	"soliproblems/Voting.sol": {
		"Voting": {
			"abi": [
				{
					"inputs": [
						{
							"internalType": "uint256",
							"name": "",
							"type": "uint256"
						},
						{
							"internalType": "string",
							"name": "",
							"type": "string"
						}
					],
					"name": "candidateVotes",
					"outputs": [
						{
							"internalType": "uint256",
							"name": "",
							"type": "uint256"
						}
					],
					"stateMutability": "view",
					"type": "function"
				},
				{
					"inputs": [],
					"name": "currentVersion",
					"outputs": [
						{
							"internalType": "uint256",
							"name": "",
							"type": "uint256"
						}
					],
					"stateMutability": "view",
					"type": "function"
				},
				{
					"inputs": [
						{
							"internalType": "string",
							"name": "candidateName",
							"type": "string"
						}
					],
					"name": "getVotes",
					"outputs": [
						{
							"internalType": "uint256",
							"name": "",
							"type": "uint256"
						}
					],
					"stateMutability": "view",
					"type": "function"
				},
				{
					"inputs": [],
					"name": "owner",
					"outputs": [
						{
							"internalType": "address",
							"name": "",
							"type": "address"
						}
					],
					"stateMutability": "view",
					"type": "function"
				},
				{
					"inputs": [],
					"name": "resetVotes",
					"outputs": [],
					"stateMutability": "nonpayable",
					"type": "function"
				},
				{
					"inputs": [
						{
							"internalType": "string",
							"name": "candidateName",
							"type": "string"
						}
					],
					"name": "vote",
					"outputs": [],
					"stateMutability": "nonpayable",
					"type": "function"
				}
			],
			"devdoc": {
				"kind": "dev",
				"methods": {},
				"version": 1
			},
			"evm": {
				"assembly": "    /* \"soliproblems/Voting.sol\":60:939  contract Voting {... */\n  mstore(0x40, 0xa0)\n    /* \"soliproblems/Voting.sol\":190:191  1 */\n  0x01\n    /* \"soliproblems/Voting.sol\":158:191  uint256 public currentVersion = 1 */\n  dup1\n  sstore\n    /* \"soliproblems/Voting.sol\":745:755  msg.sender */\n  caller\n    /* \"soliproblems/Voting.sol\":712:755  address public immutable owner = msg.sender */\n  0xffffffffffffffffffffffffffffffffffffffff\n  and\n  0x80\n  swap1\n  0xffffffffffffffffffffffffffffffffffffffff\n  and\n  dup2\n  mstore\n  pop\n    /* \"soliproblems/Voting.sol\":60:939  contract Voting {... */\n  callvalue\n  dup1\n  iszero\n  tag_1\n  jumpi\n  revert(0x00, 0x00)\ntag_1:\n  pop\n  mload(0x80)\n  codecopy(0x00, dataOffset(sub_0), dataSize(sub_0))\n  0x00\n  assignImmutable(\"0xbbd48b257be1b8216d144ef9be5734f8d11697959c9e0f7768bec89db74a63a3\")\n  return(0x00, dataSize(sub_0))\nstop\n\nsub_0: assembly {\n        /* \"soliproblems/Voting.sol\":60:939  contract Voting {... */\n      mstore(0x40, 0x80)\n      callvalue\n      dup1\n      iszero\n      tag_1\n      jumpi\n      revert(0x00, 0x00)\n    tag_1:\n      pop\n      jumpi(tag_2, lt(calldatasize, 0x04))\n      shr(0xe0, calldataload(0x00))\n      dup1\n      0x05f37a99\n      eq\n      tag_3\n      jumpi\n      dup1\n      0x805265e5\n      eq\n      tag_4\n      jumpi\n      dup1\n      0x8da5cb5b\n      eq\n      tag_5\n      jumpi\n      dup1\n      0x9d888e86\n      eq\n      tag_6\n      jumpi\n      dup1\n      0xb9830ff1\n      eq\n      tag_7\n      jumpi\n      dup1\n      0xfc36e15b\n      eq\n      tag_8\n      jumpi\n    tag_2:\n      revert(0x00, 0x00)\n        /* \"soliproblems/Voting.sol\":83:151  mapping(uint256 => mapping(string => uint256)) public candidateVotes */\n    tag_3:\n      tag_9\n      0x04\n      dup1\n      calldatasize\n      sub\n      dup2\n      add\n      swap1\n      tag_10\n      swap2\n      swap1\n      tag_11\n      jump\t// in\n    tag_10:\n      tag_12\n      jump\t// in\n    tag_9:\n      mload(0x40)\n      tag_13\n      swap2\n      swap1\n      tag_14\n      jump\t// in\n    tag_13:\n      mload(0x40)\n      dup1\n      swap2\n      sub\n      swap1\n      return\n        /* \"soliproblems/Voting.sol\":538:706  function getVotes(... */\n    tag_4:\n      tag_15\n      0x04\n      dup1\n      calldatasize\n      sub\n      dup2\n      add\n      swap1\n      tag_16\n      swap2\n      swap1\n      tag_17\n      jump\t// in\n    tag_16:\n      tag_18\n      jump\t// in\n    tag_15:\n      mload(0x40)\n      tag_19\n      swap2\n      swap1\n      tag_14\n      jump\t// in\n    tag_19:\n      mload(0x40)\n      dup1\n      swap2\n      sub\n      swap1\n      return\n        /* \"soliproblems/Voting.sol\":712:755  address public immutable owner = msg.sender */\n    tag_5:\n      tag_20\n      tag_21\n      jump\t// in\n    tag_20:\n      mload(0x40)\n      tag_22\n      swap2\n      swap1\n      tag_23\n      jump\t// in\n    tag_22:\n      mload(0x40)\n      dup1\n      swap2\n      sub\n      swap1\n      return\n        /* \"soliproblems/Voting.sol\":158:191  uint256 public currentVersion = 1 */\n    tag_6:\n      tag_24\n      tag_25\n      jump\t// in\n    tag_24:\n      mload(0x40)\n      tag_26\n      swap2\n      swap1\n      tag_14\n      jump\t// in\n    tag_26:\n      mload(0x40)\n      dup1\n      swap2\n      sub\n      swap1\n      return\n        /* \"soliproblems/Voting.sol\":798:936  function resetVotes() external {... */\n    tag_7:\n      tag_27\n      tag_28\n      jump\t// in\n    tag_27:\n      stop\n        /* \"soliproblems/Voting.sol\":239:488  function vote(string calldata candidateName) external {... */\n    tag_8:\n      tag_29\n      0x04\n      dup1\n      calldatasize\n      sub\n      dup2\n      add\n      swap1\n      tag_30\n      swap2\n      swap1\n      tag_17\n      jump\t// in\n    tag_30:\n      tag_31\n      jump\t// in\n    tag_29:\n      stop\n        /* \"soliproblems/Voting.sol\":83:151  mapping(uint256 => mapping(string => uint256)) public candidateVotes */\n    tag_12:\n      mstore(0x20, 0x00)\n      dup2\n      0x00\n      mstore\n      keccak256(0x00, 0x40)\n      dup2\n      dup1\n      mload\n      0x20\n      dup2\n      add\n      dup3\n      add\n      dup1\n      mload\n      dup5\n      dup3\n      mstore\n      0x20\n      dup4\n      add\n      0x20\n      dup6\n      add\n      keccak256\n      dup2\n      dup4\n      mstore\n      dup1\n      swap6\n      pop\n      pop\n      pop\n      pop\n      pop\n      pop\n      0x00\n      swap2\n      pop\n      swap2\n      pop\n      pop\n      sload\n      dup2\n      jump\t// out\n        /* \"soliproblems/Voting.sol\":538:706  function getVotes(... */\n    tag_18:\n        /* \"soliproblems/Voting.sol\":626:633  uint256 */\n      0x00\n        /* \"soliproblems/Voting.sol\":653:667  candidateVotes */\n      0x00\n        /* \"soliproblems/Voting.sol\":653:683  candidateVotes[currentVersion] */\n      0x00\n        /* \"soliproblems/Voting.sol\":668:682  currentVersion */\n      sload(0x01)\n        /* \"soliproblems/Voting.sol\":653:683  candidateVotes[currentVersion] */\n      dup2\n      mstore\n      0x20\n      add\n      swap1\n      dup2\n      mstore\n      0x20\n      add\n      0x00\n      keccak256\n        /* \"soliproblems/Voting.sol\":684:697  candidateName */\n      dup4\n      dup4\n        /* \"soliproblems/Voting.sol\":653:698  candidateVotes[currentVersion][candidateName] */\n      mload(0x40)\n      tag_33\n      swap3\n      swap2\n      swap1\n      tag_34\n      jump\t// in\n    tag_33:\n      swap1\n      dup2\n      mstore\n      0x20\n      add\n      mload(0x40)\n      dup1\n      swap2\n      sub\n      swap1\n      keccak256\n      sload\n        /* \"soliproblems/Voting.sol\":646:698  return candidateVotes[currentVersion][candidateName] */\n      swap1\n      pop\n        /* \"soliproblems/Voting.sol\":538:706  function getVotes(... */\n      swap3\n      swap2\n      pop\n      pop\n      jump\t// out\n        /* \"soliproblems/Voting.sol\":712:755  address public immutable owner = msg.sender */\n    tag_21:\n      immutable(\"0xbbd48b257be1b8216d144ef9be5734f8d11697959c9e0f7768bec89db74a63a3\")\n      dup2\n      jump\t// out\n        /* \"soliproblems/Voting.sol\":158:191  uint256 public currentVersion = 1 */\n    tag_25:\n      sload(0x01)\n      dup2\n      jump\t// out\n        /* \"soliproblems/Voting.sol\":798:936  function resetVotes() external {... */\n    tag_28:\n        /* \"soliproblems/Voting.sol\":862:867  owner */\n      immutable(\"0xbbd48b257be1b8216d144ef9be5734f8d11697959c9e0f7768bec89db74a63a3\")\n        /* \"soliproblems/Voting.sol\":848:867  msg.sender == owner */\n      0xffffffffffffffffffffffffffffffffffffffff\n      and\n        /* \"soliproblems/Voting.sol\":848:858  msg.sender */\n      caller\n        /* \"soliproblems/Voting.sol\":848:867  msg.sender == owner */\n      0xffffffffffffffffffffffffffffffffffffffff\n      and\n      eq\n        /* \"soliproblems/Voting.sol\":840:898  require(msg.sender == owner, \"Only owner can reset votes\") */\n      tag_36\n      jumpi\n      mload(0x40)\n      0x08c379a000000000000000000000000000000000000000000000000000000000\n      dup2\n      mstore\n      0x04\n      add\n      tag_37\n      swap1\n      tag_38\n      jump\t// in\n    tag_37:\n      mload(0x40)\n      dup1\n      swap2\n      sub\n      swap1\n      revert\n    tag_36:\n        /* \"soliproblems/Voting.sol\":927:928  1 */\n      0x01\n        /* \"soliproblems/Voting.sol\":909:923  currentVersion */\n      dup1\n      0x00\n        /* \"soliproblems/Voting.sol\":909:928  currentVersion += 1 */\n      dup3\n      dup3\n      sload\n      tag_39\n      swap2\n      swap1\n      tag_40\n      jump\t// in\n    tag_39:\n      swap3\n      pop\n      pop\n      dup2\n      swap1\n      sstore\n      pop\n        /* \"soliproblems/Voting.sol\":798:936  function resetVotes() external {... */\n      jump\t// out\n        /* \"soliproblems/Voting.sol\":239:488  function vote(string calldata candidateName) external {... */\n    tag_31:\n        /* \"soliproblems/Voting.sol\":356:357  0 */\n      0x00\n        /* \"soliproblems/Voting.sol\":332:345  candidateName */\n      dup3\n      dup3\n        /* \"soliproblems/Voting.sol\":326:353  bytes(candidateName).length */\n      swap1\n      pop\n        /* \"soliproblems/Voting.sol\":326:357  bytes(candidateName).length > 0 */\n      gt\n        /* \"soliproblems/Voting.sol\":304:419  require(... */\n      tag_42\n      jumpi\n      mload(0x40)\n      0x08c379a000000000000000000000000000000000000000000000000000000000\n      dup2\n      mstore\n      0x04\n      add\n      tag_43\n      swap1\n      tag_44\n      jump\t// in\n    tag_43:\n      mload(0x40)\n      dup1\n      swap2\n      sub\n      swap1\n      revert\n    tag_42:\n        /* \"soliproblems/Voting.sol\":479:480  1 */\n      0x01\n        /* \"soliproblems/Voting.sol\":430:444  candidateVotes */\n      0x00\n        /* \"soliproblems/Voting.sol\":430:460  candidateVotes[currentVersion] */\n      0x00\n        /* \"soliproblems/Voting.sol\":445:459  currentVersion */\n      sload(0x01)\n        /* \"soliproblems/Voting.sol\":430:460  candidateVotes[currentVersion] */\n      dup2\n      mstore\n      0x20\n      add\n      swap1\n      dup2\n      mstore\n      0x20\n      add\n      0x00\n      keccak256\n        /* \"soliproblems/Voting.sol\":461:474  candidateName */\n      dup4\n      dup4\n        /* \"soliproblems/Voting.sol\":430:475  candidateVotes[currentVersion][candidateName] */\n      mload(0x40)\n      tag_45\n      swap3\n      swap2\n      swap1\n      tag_34\n      jump\t// in\n    tag_45:\n      swap1\n      dup2\n      mstore\n      0x20\n      add\n      mload(0x40)\n      dup1\n      swap2\n      sub\n      swap1\n      keccak256\n      0x00\n        /* \"soliproblems/Voting.sol\":430:480  candidateVotes[currentVersion][candidateName] += 1 */\n      dup3\n      dup3\n      sload\n      tag_46\n      swap2\n      swap1\n      tag_40\n      jump\t// in\n    tag_46:\n      swap3\n      pop\n      pop\n      dup2\n      swap1\n      sstore\n      pop\n        /* \"soliproblems/Voting.sol\":239:488  function vote(string calldata candidateName) external {... */\n      pop\n      pop\n      jump\t// out\n        /* \"#utility.yul\":7:82   */\n    tag_47:\n        /* \"#utility.yul\":40:46   */\n      0x00\n        /* \"#utility.yul\":73:75   */\n      0x40\n        /* \"#utility.yul\":67:76   */\n      mload\n        /* \"#utility.yul\":57:76   */\n      swap1\n      pop\n        /* \"#utility.yul\":7:82   */\n      swap1\n      jump\t// out\n        /* \"#utility.yul\":88:205   */\n    tag_48:\n        /* \"#utility.yul\":197:198   */\n      0x00\n        /* \"#utility.yul\":194:195   */\n      0x00\n        /* \"#utility.yul\":187:199   */\n      revert\n        /* \"#utility.yul\":211:328   */\n    tag_49:\n        /* \"#utility.yul\":320:321   */\n      0x00\n        /* \"#utility.yul\":317:318   */\n      0x00\n        /* \"#utility.yul\":310:322   */\n      revert\n        /* \"#utility.yul\":334:411   */\n    tag_50:\n        /* \"#utility.yul\":371:378   */\n      0x00\n        /* \"#utility.yul\":400:405   */\n      dup2\n        /* \"#utility.yul\":389:405   */\n      swap1\n      pop\n        /* \"#utility.yul\":334:411   */\n      swap2\n      swap1\n      pop\n      jump\t// out\n        /* \"#utility.yul\":417:539   */\n    tag_51:\n        /* \"#utility.yul\":490:514   */\n      tag_84\n        /* \"#utility.yul\":508:513   */\n      dup2\n        /* \"#utility.yul\":490:514   */\n      tag_50\n      jump\t// in\n    tag_84:\n        /* \"#utility.yul\":483:488   */\n      dup2\n        /* \"#utility.yul\":480:515   */\n      eq\n        /* \"#utility.yul\":470:533   */\n      tag_85\n      jumpi\n        /* \"#utility.yul\":529:530   */\n      0x00\n        /* \"#utility.yul\":526:527   */\n      0x00\n        /* \"#utility.yul\":519:531   */\n      revert\n        /* \"#utility.yul\":470:533   */\n    tag_85:\n        /* \"#utility.yul\":417:539   */\n      pop\n      jump\t// out\n        /* \"#utility.yul\":545:684   */\n    tag_52:\n        /* \"#utility.yul\":591:596   */\n      0x00\n        /* \"#utility.yul\":629:635   */\n      dup2\n        /* \"#utility.yul\":616:636   */\n      calldataload\n        /* \"#utility.yul\":607:636   */\n      swap1\n      pop\n        /* \"#utility.yul\":645:678   */\n      tag_87\n        /* \"#utility.yul\":672:677   */\n      dup2\n        /* \"#utility.yul\":645:678   */\n      tag_51\n      jump\t// in\n    tag_87:\n        /* \"#utility.yul\":545:684   */\n      swap3\n      swap2\n      pop\n      pop\n      jump\t// out\n        /* \"#utility.yul\":690:807   */\n    tag_53:\n        /* \"#utility.yul\":799:800   */\n      0x00\n        /* \"#utility.yul\":796:797   */\n      0x00\n        /* \"#utility.yul\":789:801   */\n      revert\n        /* \"#utility.yul\":813:930   */\n    tag_54:\n        /* \"#utility.yul\":922:923   */\n      0x00\n        /* \"#utility.yul\":919:920   */\n      0x00\n        /* \"#utility.yul\":912:924   */\n      revert\n        /* \"#utility.yul\":936:1038   */\n    tag_55:\n        /* \"#utility.yul\":977:983   */\n      0x00\n        /* \"#utility.yul\":1028:1030   */\n      0x1f\n        /* \"#utility.yul\":1024:1031   */\n      not\n        /* \"#utility.yul\":1019:1021   */\n      0x1f\n        /* \"#utility.yul\":1012:1017   */\n      dup4\n        /* \"#utility.yul\":1008:1022   */\n      add\n        /* \"#utility.yul\":1004:1032   */\n      and\n        /* \"#utility.yul\":994:1032   */\n      swap1\n      pop\n        /* \"#utility.yul\":936:1038   */\n      swap2\n      swap1\n      pop\n      jump\t// out\n        /* \"#utility.yul\":1044:1224   */\n    tag_56:\n        /* \"#utility.yul\":1092:1169   */\n      0x4e487b7100000000000000000000000000000000000000000000000000000000\n        /* \"#utility.yul\":1089:1090   */\n      0x00\n        /* \"#utility.yul\":1082:1170   */\n      mstore\n        /* \"#utility.yul\":1189:1193   */\n      0x41\n        /* \"#utility.yul\":1186:1187   */\n      0x04\n        /* \"#utility.yul\":1179:1194   */\n      mstore\n        /* \"#utility.yul\":1213:1217   */\n      0x24\n        /* \"#utility.yul\":1210:1211   */\n      0x00\n        /* \"#utility.yul\":1203:1218   */\n      revert\n        /* \"#utility.yul\":1230:1511   */\n    tag_57:\n        /* \"#utility.yul\":1313:1340   */\n      tag_93\n        /* \"#utility.yul\":1335:1339   */\n      dup3\n        /* \"#utility.yul\":1313:1340   */\n      tag_55\n      jump\t// in\n    tag_93:\n        /* \"#utility.yul\":1305:1311   */\n      dup2\n        /* \"#utility.yul\":1301:1341   */\n      add\n        /* \"#utility.yul\":1443:1449   */\n      dup2\n        /* \"#utility.yul\":1431:1441   */\n      dup2\n        /* \"#utility.yul\":1428:1450   */\n      lt\n        /* \"#utility.yul\":1407:1425   */\n      0xffffffffffffffff\n        /* \"#utility.yul\":1395:1405   */\n      dup3\n        /* \"#utility.yul\":1392:1426   */\n      gt\n        /* \"#utility.yul\":1389:1451   */\n      or\n        /* \"#utility.yul\":1386:1474   */\n      iszero\n      tag_94\n      jumpi\n        /* \"#utility.yul\":1454:1472   */\n      tag_95\n      tag_56\n      jump\t// in\n    tag_95:\n        /* \"#utility.yul\":1386:1474   */\n    tag_94:\n        /* \"#utility.yul\":1494:1504   */\n      dup1\n        /* \"#utility.yul\":1490:1492   */\n      0x40\n        /* \"#utility.yul\":1483:1505   */\n      mstore\n        /* \"#utility.yul\":1273:1511   */\n      pop\n        /* \"#utility.yul\":1230:1511   */\n      pop\n      pop\n      jump\t// out\n        /* \"#utility.yul\":1517:1646   */\n    tag_58:\n        /* \"#utility.yul\":1551:1557   */\n      0x00\n        /* \"#utility.yul\":1578:1598   */\n      tag_97\n      tag_47\n      jump\t// in\n    tag_97:\n        /* \"#utility.yul\":1568:1598   */\n      swap1\n      pop\n        /* \"#utility.yul\":1607:1640   */\n      tag_98\n        /* \"#utility.yul\":1635:1639   */\n      dup3\n        /* \"#utility.yul\":1627:1633   */\n      dup3\n        /* \"#utility.yul\":1607:1640   */\n      tag_57\n      jump\t// in\n    tag_98:\n        /* \"#utility.yul\":1517:1646   */\n      swap2\n      swap1\n      pop\n      jump\t// out\n        /* \"#utility.yul\":1652:1960   */\n    tag_59:\n        /* \"#utility.yul\":1714:1718   */\n      0x00\n        /* \"#utility.yul\":1804:1822   */\n      0xffffffffffffffff\n        /* \"#utility.yul\":1796:1802   */\n      dup3\n        /* \"#utility.yul\":1793:1823   */\n      gt\n        /* \"#utility.yul\":1790:1846   */\n      iszero\n      tag_100\n      jumpi\n        /* \"#utility.yul\":1826:1844   */\n      tag_101\n      tag_56\n      jump\t// in\n    tag_101:\n        /* \"#utility.yul\":1790:1846   */\n    tag_100:\n        /* \"#utility.yul\":1864:1893   */\n      tag_102\n        /* \"#utility.yul\":1886:1892   */\n      dup3\n        /* \"#utility.yul\":1864:1893   */\n      tag_55\n      jump\t// in\n    tag_102:\n        /* \"#utility.yul\":1856:1893   */\n      swap1\n      pop\n        /* \"#utility.yul\":1948:1952   */\n      0x20\n        /* \"#utility.yul\":1942:1946   */\n      dup2\n        /* \"#utility.yul\":1938:1953   */\n      add\n        /* \"#utility.yul\":1930:1953   */\n      swap1\n      pop\n        /* \"#utility.yul\":1652:1960   */\n      swap2\n      swap1\n      pop\n      jump\t// out\n        /* \"#utility.yul\":1966:2114   */\n    tag_60:\n        /* \"#utility.yul\":2064:2070   */\n      dup3\n        /* \"#utility.yul\":2059:2062   */\n      dup2\n        /* \"#utility.yul\":2054:2057   */\n      dup4\n        /* \"#utility.yul\":2041:2071   */\n      calldatacopy\n        /* \"#utility.yul\":2105:2106   */\n      0x00\n        /* \"#utility.yul\":2096:2102   */\n      dup4\n        /* \"#utility.yul\":2091:2094   */\n      dup4\n        /* \"#utility.yul\":2087:2103   */\n      add\n        /* \"#utility.yul\":2080:2107   */\n      mstore\n        /* \"#utility.yul\":1966:2114   */\n      pop\n      pop\n      pop\n      jump\t// out\n        /* \"#utility.yul\":2120:2545   */\n    tag_61:\n        /* \"#utility.yul\":2198:2203   */\n      0x00\n        /* \"#utility.yul\":2223:2289   */\n      tag_105\n        /* \"#utility.yul\":2239:2288   */\n      tag_106\n        /* \"#utility.yul\":2281:2287   */\n      dup5\n        /* \"#utility.yul\":2239:2288   */\n      tag_59\n      jump\t// in\n    tag_106:\n        /* \"#utility.yul\":2223:2289   */\n      tag_58\n      jump\t// in\n    tag_105:\n        /* \"#utility.yul\":2214:2289   */\n      swap1\n      pop\n        /* \"#utility.yul\":2312:2318   */\n      dup3\n        /* \"#utility.yul\":2305:2310   */\n      dup2\n        /* \"#utility.yul\":2298:2319   */\n      mstore\n        /* \"#utility.yul\":2350:2354   */\n      0x20\n        /* \"#utility.yul\":2343:2348   */\n      dup2\n        /* \"#utility.yul\":2339:2355   */\n      add\n        /* \"#utility.yul\":2388:2391   */\n      dup5\n        /* \"#utility.yul\":2379:2385   */\n      dup5\n        /* \"#utility.yul\":2374:2377   */\n      dup5\n        /* \"#utility.yul\":2370:2386   */\n      add\n        /* \"#utility.yul\":2367:2392   */\n      gt\n        /* \"#utility.yul\":2364:2476   */\n      iszero\n      tag_107\n      jumpi\n        /* \"#utility.yul\":2395:2474   */\n      tag_108\n      tag_54\n      jump\t// in\n    tag_108:\n        /* \"#utility.yul\":2364:2476   */\n    tag_107:\n        /* \"#utility.yul\":2485:2539   */\n      tag_109\n        /* \"#utility.yul\":2532:2538   */\n      dup5\n        /* \"#utility.yul\":2527:2530   */\n      dup3\n        /* \"#utility.yul\":2522:2525   */\n      dup6\n        /* \"#utility.yul\":2485:2539   */\n      tag_60\n      jump\t// in\n    tag_109:\n        /* \"#utility.yul\":2204:2545   */\n      pop\n        /* \"#utility.yul\":2120:2545   */\n      swap4\n      swap3\n      pop\n      pop\n      pop\n      jump\t// out\n        /* \"#utility.yul\":2565:2905   */\n    tag_62:\n        /* \"#utility.yul\":2621:2626   */\n      0x00\n        /* \"#utility.yul\":2670:2673   */\n      dup3\n        /* \"#utility.yul\":2663:2667   */\n      0x1f\n        /* \"#utility.yul\":2655:2661   */\n      dup4\n        /* \"#utility.yul\":2651:2668   */\n      add\n        /* \"#utility.yul\":2647:2674   */\n      slt\n        /* \"#utility.yul\":2637:2759   */\n      tag_111\n      jumpi\n        /* \"#utility.yul\":2678:2757   */\n      tag_112\n      tag_53\n      jump\t// in\n    tag_112:\n        /* \"#utility.yul\":2637:2759   */\n    tag_111:\n        /* \"#utility.yul\":2795:2801   */\n      dup2\n        /* \"#utility.yul\":2782:2802   */\n      calldataload\n        /* \"#utility.yul\":2820:2899   */\n      tag_113\n        /* \"#utility.yul\":2895:2898   */\n      dup5\n        /* \"#utility.yul\":2887:2893   */\n      dup3\n        /* \"#utility.yul\":2880:2884   */\n      0x20\n        /* \"#utility.yul\":2872:2878   */\n      dup7\n        /* \"#utility.yul\":2868:2885   */\n      add\n        /* \"#utility.yul\":2820:2899   */\n      tag_61\n      jump\t// in\n    tag_113:\n        /* \"#utility.yul\":2811:2899   */\n      swap2\n      pop\n        /* \"#utility.yul\":2627:2905   */\n      pop\n        /* \"#utility.yul\":2565:2905   */\n      swap3\n      swap2\n      pop\n      pop\n      jump\t// out\n        /* \"#utility.yul\":2911:3565   */\n    tag_11:\n        /* \"#utility.yul\":2989:2995   */\n      0x00\n        /* \"#utility.yul\":2997:3003   */\n      0x00\n        /* \"#utility.yul\":3046:3048   */\n      0x40\n        /* \"#utility.yul\":3034:3043   */\n      dup4\n        /* \"#utility.yul\":3025:3032   */\n      dup6\n        /* \"#utility.yul\":3021:3044   */\n      sub\n        /* \"#utility.yul\":3017:3049   */\n      slt\n        /* \"#utility.yul\":3014:3133   */\n      iszero\n      tag_115\n      jumpi\n        /* \"#utility.yul\":3052:3131   */\n      tag_116\n      tag_48\n      jump\t// in\n    tag_116:\n        /* \"#utility.yul\":3014:3133   */\n    tag_115:\n        /* \"#utility.yul\":3172:3173   */\n      0x00\n        /* \"#utility.yul\":3197:3250   */\n      tag_117\n        /* \"#utility.yul\":3242:3249   */\n      dup6\n        /* \"#utility.yul\":3233:3239   */\n      dup3\n        /* \"#utility.yul\":3222:3231   */\n      dup7\n        /* \"#utility.yul\":3218:3240   */\n      add\n        /* \"#utility.yul\":3197:3250   */\n      tag_52\n      jump\t// in\n    tag_117:\n        /* \"#utility.yul\":3187:3250   */\n      swap3\n      pop\n        /* \"#utility.yul\":3143:3260   */\n      pop\n        /* \"#utility.yul\":3327:3329   */\n      0x20\n        /* \"#utility.yul\":3316:3325   */\n      dup4\n        /* \"#utility.yul\":3312:3330   */\n      add\n        /* \"#utility.yul\":3299:3331   */\n      calldataload\n        /* \"#utility.yul\":3358:3376   */\n      0xffffffffffffffff\n        /* \"#utility.yul\":3350:3356   */\n      dup2\n        /* \"#utility.yul\":3347:3377   */\n      gt\n        /* \"#utility.yul\":3344:3461   */\n      iszero\n      tag_118\n      jumpi\n        /* \"#utility.yul\":3380:3459   */\n      tag_119\n      tag_49\n      jump\t// in\n    tag_119:\n        /* \"#utility.yul\":3344:3461   */\n    tag_118:\n        /* \"#utility.yul\":3485:3548   */\n      tag_120\n        /* \"#utility.yul\":3540:3547   */\n      dup6\n        /* \"#utility.yul\":3531:3537   */\n      dup3\n        /* \"#utility.yul\":3520:3529   */\n      dup7\n        /* \"#utility.yul\":3516:3538   */\n      add\n        /* \"#utility.yul\":3485:3548   */\n      tag_62\n      jump\t// in\n    tag_120:\n        /* \"#utility.yul\":3475:3548   */\n      swap2\n      pop\n        /* \"#utility.yul\":3270:3558   */\n      pop\n        /* \"#utility.yul\":2911:3565   */\n      swap3\n      pop\n      swap3\n      swap1\n      pop\n      jump\t// out\n        /* \"#utility.yul\":3571:3689   */\n    tag_63:\n        /* \"#utility.yul\":3658:3682   */\n      tag_122\n        /* \"#utility.yul\":3676:3681   */\n      dup2\n        /* \"#utility.yul\":3658:3682   */\n      tag_50\n      jump\t// in\n    tag_122:\n        /* \"#utility.yul\":3653:3656   */\n      dup3\n        /* \"#utility.yul\":3646:3683   */\n      mstore\n        /* \"#utility.yul\":3571:3689   */\n      pop\n      pop\n      jump\t// out\n        /* \"#utility.yul\":3695:3917   */\n    tag_14:\n        /* \"#utility.yul\":3788:3792   */\n      0x00\n        /* \"#utility.yul\":3826:3828   */\n      0x20\n        /* \"#utility.yul\":3815:3824   */\n      dup3\n        /* \"#utility.yul\":3811:3829   */\n      add\n        /* \"#utility.yul\":3803:3829   */\n      swap1\n      pop\n        /* \"#utility.yul\":3839:3910   */\n      tag_124\n        /* \"#utility.yul\":3907:3908   */\n      0x00\n        /* \"#utility.yul\":3896:3905   */\n      dup4\n        /* \"#utility.yul\":3892:3909   */\n      add\n        /* \"#utility.yul\":3883:3889   */\n      dup5\n        /* \"#utility.yul\":3839:3910   */\n      tag_63\n      jump\t// in\n    tag_124:\n        /* \"#utility.yul\":3695:3917   */\n      swap3\n      swap2\n      pop\n      pop\n      jump\t// out\n        /* \"#utility.yul\":3923:4040   */\n    tag_64:\n        /* \"#utility.yul\":4032:4033   */\n      0x00\n        /* \"#utility.yul\":4029:4030   */\n      0x00\n        /* \"#utility.yul\":4022:4034   */\n      revert\n        /* \"#utility.yul\":4046:4163   */\n    tag_65:\n        /* \"#utility.yul\":4155:4156   */\n      0x00\n        /* \"#utility.yul\":4152:4153   */\n      0x00\n        /* \"#utility.yul\":4145:4157   */\n      revert\n        /* \"#utility.yul\":4183:4736   */\n    tag_66:\n        /* \"#utility.yul\":4241:4249   */\n      0x00\n        /* \"#utility.yul\":4251:4257   */\n      0x00\n        /* \"#utility.yul\":4301:4304   */\n      dup4\n        /* \"#utility.yul\":4294:4298   */\n      0x1f\n        /* \"#utility.yul\":4286:4292   */\n      dup5\n        /* \"#utility.yul\":4282:4299   */\n      add\n        /* \"#utility.yul\":4278:4305   */\n      slt\n        /* \"#utility.yul\":4268:4390   */\n      tag_128\n      jumpi\n        /* \"#utility.yul\":4309:4388   */\n      tag_129\n      tag_53\n      jump\t// in\n    tag_129:\n        /* \"#utility.yul\":4268:4390   */\n    tag_128:\n        /* \"#utility.yul\":4422:4428   */\n      dup3\n        /* \"#utility.yul\":4409:4429   */\n      calldataload\n        /* \"#utility.yul\":4399:4429   */\n      swap1\n      pop\n        /* \"#utility.yul\":4452:4470   */\n      0xffffffffffffffff\n        /* \"#utility.yul\":4444:4450   */\n      dup2\n        /* \"#utility.yul\":4441:4471   */\n      gt\n        /* \"#utility.yul\":4438:4555   */\n      iszero\n      tag_130\n      jumpi\n        /* \"#utility.yul\":4474:4553   */\n      tag_131\n      tag_64\n      jump\t// in\n    tag_131:\n        /* \"#utility.yul\":4438:4555   */\n    tag_130:\n        /* \"#utility.yul\":4588:4592   */\n      0x20\n        /* \"#utility.yul\":4580:4586   */\n      dup4\n        /* \"#utility.yul\":4576:4593   */\n      add\n        /* \"#utility.yul\":4564:4593   */\n      swap2\n      pop\n        /* \"#utility.yul\":4642:4645   */\n      dup4\n        /* \"#utility.yul\":4634:4638   */\n      0x01\n        /* \"#utility.yul\":4626:4632   */\n      dup3\n        /* \"#utility.yul\":4622:4639   */\n      mul\n        /* \"#utility.yul\":4612:4620   */\n      dup4\n        /* \"#utility.yul\":4608:4640   */\n      add\n        /* \"#utility.yul\":4605:4646   */\n      gt\n        /* \"#utility.yul\":4602:4730   */\n      iszero\n      tag_132\n      jumpi\n        /* \"#utility.yul\":4649:4728   */\n      tag_133\n      tag_65\n      jump\t// in\n    tag_133:\n        /* \"#utility.yul\":4602:4730   */\n    tag_132:\n        /* \"#utility.yul\":4183:4736   */\n      swap3\n      pop\n      swap3\n      swap1\n      pop\n      jump\t// out\n        /* \"#utility.yul\":4742:5271   */\n    tag_17:\n        /* \"#utility.yul\":4813:4819   */\n      0x00\n        /* \"#utility.yul\":4821:4827   */\n      0x00\n        /* \"#utility.yul\":4870:4872   */\n      0x20\n        /* \"#utility.yul\":4858:4867   */\n      dup4\n        /* \"#utility.yul\":4849:4856   */\n      dup6\n        /* \"#utility.yul\":4845:4868   */\n      sub\n        /* \"#utility.yul\":4841:4873   */\n      slt\n        /* \"#utility.yul\":4838:4957   */\n      iszero\n      tag_135\n      jumpi\n        /* \"#utility.yul\":4876:4955   */\n      tag_136\n      tag_48\n      jump\t// in\n    tag_136:\n        /* \"#utility.yul\":4838:4957   */\n    tag_135:\n        /* \"#utility.yul\":5024:5025   */\n      0x00\n        /* \"#utility.yul\":5013:5022   */\n      dup4\n        /* \"#utility.yul\":5009:5026   */\n      add\n        /* \"#utility.yul\":4996:5027   */\n      calldataload\n        /* \"#utility.yul\":5054:5072   */\n      0xffffffffffffffff\n        /* \"#utility.yul\":5046:5052   */\n      dup2\n        /* \"#utility.yul\":5043:5073   */\n      gt\n        /* \"#utility.yul\":5040:5157   */\n      iszero\n      tag_137\n      jumpi\n        /* \"#utility.yul\":5076:5155   */\n      tag_138\n      tag_49\n      jump\t// in\n    tag_138:\n        /* \"#utility.yul\":5040:5157   */\n    tag_137:\n        /* \"#utility.yul\":5189:5254   */\n      tag_139\n        /* \"#utility.yul\":5246:5253   */\n      dup6\n        /* \"#utility.yul\":5237:5243   */\n      dup3\n        /* \"#utility.yul\":5226:5235   */\n      dup7\n        /* \"#utility.yul\":5222:5244   */\n      add\n        /* \"#utility.yul\":5189:5254   */\n      tag_66\n      jump\t// in\n    tag_139:\n        /* \"#utility.yul\":5171:5254   */\n      swap3\n      pop\n      swap3\n      pop\n        /* \"#utility.yul\":4967:5264   */\n      pop\n        /* \"#utility.yul\":4742:5271   */\n      swap3\n      pop\n      swap3\n      swap1\n      pop\n      jump\t// out\n        /* \"#utility.yul\":5277:5403   */\n    tag_67:\n        /* \"#utility.yul\":5314:5321   */\n      0x00\n        /* \"#utility.yul\":5354:5396   */\n      0xffffffffffffffffffffffffffffffffffffffff\n        /* \"#utility.yul\":5347:5352   */\n      dup3\n        /* \"#utility.yul\":5343:5397   */\n      and\n        /* \"#utility.yul\":5332:5397   */\n      swap1\n      pop\n        /* \"#utility.yul\":5277:5403   */\n      swap2\n      swap1\n      pop\n      jump\t// out\n        /* \"#utility.yul\":5409:5505   */\n    tag_68:\n        /* \"#utility.yul\":5446:5453   */\n      0x00\n        /* \"#utility.yul\":5475:5499   */\n      tag_142\n        /* \"#utility.yul\":5493:5498   */\n      dup3\n        /* \"#utility.yul\":5475:5499   */\n      tag_67\n      jump\t// in\n    tag_142:\n        /* \"#utility.yul\":5464:5499   */\n      swap1\n      pop\n        /* \"#utility.yul\":5409:5505   */\n      swap2\n      swap1\n      pop\n      jump\t// out\n        /* \"#utility.yul\":5511:5629   */\n    tag_69:\n        /* \"#utility.yul\":5598:5622   */\n      tag_144\n        /* \"#utility.yul\":5616:5621   */\n      dup2\n        /* \"#utility.yul\":5598:5622   */\n      tag_68\n      jump\t// in\n    tag_144:\n        /* \"#utility.yul\":5593:5596   */\n      dup3\n        /* \"#utility.yul\":5586:5623   */\n      mstore\n        /* \"#utility.yul\":5511:5629   */\n      pop\n      pop\n      jump\t// out\n        /* \"#utility.yul\":5635:5857   */\n    tag_23:\n        /* \"#utility.yul\":5728:5732   */\n      0x00\n        /* \"#utility.yul\":5766:5768   */\n      0x20\n        /* \"#utility.yul\":5755:5764   */\n      dup3\n        /* \"#utility.yul\":5751:5769   */\n      add\n        /* \"#utility.yul\":5743:5769   */\n      swap1\n      pop\n        /* \"#utility.yul\":5779:5850   */\n      tag_146\n        /* \"#utility.yul\":5847:5848   */\n      0x00\n        /* \"#utility.yul\":5836:5845   */\n      dup4\n        /* \"#utility.yul\":5832:5849   */\n      add\n        /* \"#utility.yul\":5823:5829   */\n      dup5\n        /* \"#utility.yul\":5779:5850   */\n      tag_69\n      jump\t// in\n    tag_146:\n        /* \"#utility.yul\":5635:5857   */\n      swap3\n      swap2\n      pop\n      pop\n      jump\t// out\n        /* \"#utility.yul\":5863:6011   */\n    tag_70:\n        /* \"#utility.yul\":5965:5976   */\n      0x00\n        /* \"#utility.yul\":6002:6005   */\n      dup2\n        /* \"#utility.yul\":5987:6005   */\n      swap1\n      pop\n        /* \"#utility.yul\":5863:6011   */\n      swap3\n      swap2\n      pop\n      pop\n      jump\t// out\n        /* \"#utility.yul\":6041:6371   */\n    tag_71:\n        /* \"#utility.yul\":6157:6160   */\n      0x00\n        /* \"#utility.yul\":6178:6267   */\n      tag_149\n        /* \"#utility.yul\":6260:6266   */\n      dup4\n        /* \"#utility.yul\":6255:6258   */\n      dup6\n        /* \"#utility.yul\":6178:6267   */\n      tag_70\n      jump\t// in\n    tag_149:\n        /* \"#utility.yul\":6171:6267   */\n      swap4\n      pop\n        /* \"#utility.yul\":6277:6333   */\n      tag_150\n        /* \"#utility.yul\":6326:6332   */\n      dup4\n        /* \"#utility.yul\":6321:6324   */\n      dup6\n        /* \"#utility.yul\":6314:6319   */\n      dup5\n        /* \"#utility.yul\":6277:6333   */\n      tag_60\n      jump\t// in\n    tag_150:\n        /* \"#utility.yul\":6358:6364   */\n      dup3\n        /* \"#utility.yul\":6353:6356   */\n      dup5\n        /* \"#utility.yul\":6349:6365   */\n      add\n        /* \"#utility.yul\":6342:6365   */\n      swap1\n      pop\n        /* \"#utility.yul\":6041:6371   */\n      swap4\n      swap3\n      pop\n      pop\n      pop\n      jump\t// out\n        /* \"#utility.yul\":6377:6672   */\n    tag_34:\n        /* \"#utility.yul\":6519:6522   */\n      0x00\n        /* \"#utility.yul\":6541:6646   */\n      tag_152\n        /* \"#utility.yul\":6642:6645   */\n      dup3\n        /* \"#utility.yul\":6633:6639   */\n      dup5\n        /* \"#utility.yul\":6625:6631   */\n      dup7\n        /* \"#utility.yul\":6541:6646   */\n      tag_71\n      jump\t// in\n    tag_152:\n        /* \"#utility.yul\":6534:6646   */\n      swap2\n      pop\n        /* \"#utility.yul\":6663:6666   */\n      dup2\n        /* \"#utility.yul\":6656:6666   */\n      swap1\n      pop\n        /* \"#utility.yul\":6377:6672   */\n      swap4\n      swap3\n      pop\n      pop\n      pop\n      jump\t// out\n        /* \"#utility.yul\":6678:6847   */\n    tag_72:\n        /* \"#utility.yul\":6762:6773   */\n      0x00\n        /* \"#utility.yul\":6796:6802   */\n      dup3\n        /* \"#utility.yul\":6791:6794   */\n      dup3\n        /* \"#utility.yul\":6784:6803   */\n      mstore\n        /* \"#utility.yul\":6836:6840   */\n      0x20\n        /* \"#utility.yul\":6831:6834   */\n      dup3\n        /* \"#utility.yul\":6827:6841   */\n      add\n        /* \"#utility.yul\":6812:6841   */\n      swap1\n      pop\n        /* \"#utility.yul\":6678:6847   */\n      swap3\n      swap2\n      pop\n      pop\n      jump\t// out\n        /* \"#utility.yul\":6853:7029   */\n    tag_73:\n        /* \"#utility.yul\":6993:7021   */\n      0x4f6e6c79206f776e65722063616e20726573657420766f746573000000000000\n        /* \"#utility.yul\":6989:6990   */\n      0x00\n        /* \"#utility.yul\":6981:6987   */\n      dup3\n        /* \"#utility.yul\":6977:6991   */\n      add\n        /* \"#utility.yul\":6970:7022   */\n      mstore\n        /* \"#utility.yul\":6853:7029   */\n      pop\n      jump\t// out\n        /* \"#utility.yul\":7035:7401   */\n    tag_74:\n        /* \"#utility.yul\":7177:7180   */\n      0x00\n        /* \"#utility.yul\":7198:7265   */\n      tag_156\n        /* \"#utility.yul\":7262:7264   */\n      0x1a\n        /* \"#utility.yul\":7257:7260   */\n      dup4\n        /* \"#utility.yul\":7198:7265   */\n      tag_72\n      jump\t// in\n    tag_156:\n        /* \"#utility.yul\":7191:7265   */\n      swap2\n      pop\n        /* \"#utility.yul\":7274:7367   */\n      tag_157\n        /* \"#utility.yul\":7363:7366   */\n      dup3\n        /* \"#utility.yul\":7274:7367   */\n      tag_73\n      jump\t// in\n    tag_157:\n        /* \"#utility.yul\":7392:7394   */\n      0x20\n        /* \"#utility.yul\":7387:7390   */\n      dup3\n        /* \"#utility.yul\":7383:7395   */\n      add\n        /* \"#utility.yul\":7376:7395   */\n      swap1\n      pop\n        /* \"#utility.yul\":7035:7401   */\n      swap2\n      swap1\n      pop\n      jump\t// out\n        /* \"#utility.yul\":7407:7826   */\n    tag_38:\n        /* \"#utility.yul\":7573:7577   */\n      0x00\n        /* \"#utility.yul\":7611:7613   */\n      0x20\n        /* \"#utility.yul\":7600:7609   */\n      dup3\n        /* \"#utility.yul\":7596:7614   */\n      add\n        /* \"#utility.yul\":7588:7614   */\n      swap1\n      pop\n        /* \"#utility.yul\":7660:7669   */\n      dup2\n        /* \"#utility.yul\":7654:7658   */\n      dup2\n        /* \"#utility.yul\":7650:7670   */\n      sub\n        /* \"#utility.yul\":7646:7647   */\n      0x00\n        /* \"#utility.yul\":7635:7644   */\n      dup4\n        /* \"#utility.yul\":7631:7648   */\n      add\n        /* \"#utility.yul\":7624:7671   */\n      mstore\n        /* \"#utility.yul\":7688:7819   */\n      tag_159\n        /* \"#utility.yul\":7814:7818   */\n      dup2\n        /* \"#utility.yul\":7688:7819   */\n      tag_74\n      jump\t// in\n    tag_159:\n        /* \"#utility.yul\":7680:7819   */\n      swap1\n      pop\n        /* \"#utility.yul\":7407:7826   */\n      swap2\n      swap1\n      pop\n      jump\t// out\n        /* \"#utility.yul\":7832:8012   */\n    tag_75:\n        /* \"#utility.yul\":7880:7957   */\n      0x4e487b7100000000000000000000000000000000000000000000000000000000\n        /* \"#utility.yul\":7877:7878   */\n      0x00\n        /* \"#utility.yul\":7870:7958   */\n      mstore\n        /* \"#utility.yul\":7977:7981   */\n      0x11\n        /* \"#utility.yul\":7974:7975   */\n      0x04\n        /* \"#utility.yul\":7967:7982   */\n      mstore\n        /* \"#utility.yul\":8001:8005   */\n      0x24\n        /* \"#utility.yul\":7998:7999   */\n      0x00\n        /* \"#utility.yul\":7991:8006   */\n      revert\n        /* \"#utility.yul\":8018:8209   */\n    tag_40:\n        /* \"#utility.yul\":8058:8061   */\n      0x00\n        /* \"#utility.yul\":8077:8097   */\n      tag_162\n        /* \"#utility.yul\":8095:8096   */\n      dup3\n        /* \"#utility.yul\":8077:8097   */\n      tag_50\n      jump\t// in\n    tag_162:\n        /* \"#utility.yul\":8072:8097   */\n      swap2\n      pop\n        /* \"#utility.yul\":8111:8131   */\n      tag_163\n        /* \"#utility.yul\":8129:8130   */\n      dup4\n        /* \"#utility.yul\":8111:8131   */\n      tag_50\n      jump\t// in\n    tag_163:\n        /* \"#utility.yul\":8106:8131   */\n      swap3\n      pop\n        /* \"#utility.yul\":8154:8155   */\n      dup3\n        /* \"#utility.yul\":8151:8152   */\n      dup3\n        /* \"#utility.yul\":8147:8156   */\n      add\n        /* \"#utility.yul\":8140:8156   */\n      swap1\n      pop\n        /* \"#utility.yul\":8175:8178   */\n      dup1\n        /* \"#utility.yul\":8172:8173   */\n      dup3\n        /* \"#utility.yul\":8169:8179   */\n      gt\n        /* \"#utility.yul\":8166:8202   */\n      iszero\n      tag_164\n      jumpi\n        /* \"#utility.yul\":8182:8200   */\n      tag_165\n      tag_75\n      jump\t// in\n    tag_165:\n        /* \"#utility.yul\":8166:8202   */\n    tag_164:\n        /* \"#utility.yul\":8018:8209   */\n      swap3\n      swap2\n      pop\n      pop\n      jump\t// out\n        /* \"#utility.yul\":8215:8436   */\n    tag_76:\n        /* \"#utility.yul\":8355:8389   */\n      0x63616e6469646174654e616d65206e616d652063616e6e6f7420626520656d70\n        /* \"#utility.yul\":8351:8352   */\n      0x00\n        /* \"#utility.yul\":8343:8349   */\n      dup3\n        /* \"#utility.yul\":8339:8353   */\n      add\n        /* \"#utility.yul\":8332:8390   */\n      mstore\n        /* \"#utility.yul\":8424:8428   */\n      0x7479000000000000000000000000000000000000000000000000000000000000\n        /* \"#utility.yul\":8419:8421   */\n      0x20\n        /* \"#utility.yul\":8411:8417   */\n      dup3\n        /* \"#utility.yul\":8407:8422   */\n      add\n        /* \"#utility.yul\":8400:8429   */\n      mstore\n        /* \"#utility.yul\":8215:8436   */\n      pop\n      jump\t// out\n        /* \"#utility.yul\":8442:8808   */\n    tag_77:\n        /* \"#utility.yul\":8584:8587   */\n      0x00\n        /* \"#utility.yul\":8605:8672   */\n      tag_168\n        /* \"#utility.yul\":8669:8671   */\n      0x22\n        /* \"#utility.yul\":8664:8667   */\n      dup4\n        /* \"#utility.yul\":8605:8672   */\n      tag_72\n      jump\t// in\n    tag_168:\n        /* \"#utility.yul\":8598:8672   */\n      swap2\n      pop\n        /* \"#utility.yul\":8681:8774   */\n      tag_169\n        /* \"#utility.yul\":8770:8773   */\n      dup3\n        /* \"#utility.yul\":8681:8774   */\n      tag_76\n      jump\t// in\n    tag_169:\n        /* \"#utility.yul\":8799:8801   */\n      0x40\n        /* \"#utility.yul\":8794:8797   */\n      dup3\n        /* \"#utility.yul\":8790:8802   */\n      add\n        /* \"#utility.yul\":8783:8802   */\n      swap1\n      pop\n        /* \"#utility.yul\":8442:8808   */\n      swap2\n      swap1\n      pop\n      jump\t// out\n        /* \"#utility.yul\":8814:9233   */\n    tag_44:\n        /* \"#utility.yul\":8980:8984   */\n      0x00\n        /* \"#utility.yul\":9018:9020   */\n      0x20\n        /* \"#utility.yul\":9007:9016   */\n      dup3\n        /* \"#utility.yul\":9003:9021   */\n      add\n        /* \"#utility.yul\":8995:9021   */\n      swap1\n      pop\n        /* \"#utility.yul\":9067:9076   */\n      dup2\n        /* \"#utility.yul\":9061:9065   */\n      dup2\n        /* \"#utility.yul\":9057:9077   */\n      sub\n        /* \"#utility.yul\":9053:9054   */\n      0x00\n        /* \"#utility.yul\":9042:9051   */\n      dup4\n        /* \"#utility.yul\":9038:9055   */\n      add\n        /* \"#utility.yul\":9031:9078   */\n      mstore\n        /* \"#utility.yul\":9095:9226   */\n      tag_171\n        /* \"#utility.yul\":9221:9225   */\n      dup2\n        /* \"#utility.yul\":9095:9226   */\n      tag_77\n      jump\t// in\n    tag_171:\n        /* \"#utility.yul\":9087:9226   */\n      swap1\n      pop\n        /* \"#utility.yul\":8814:9233   */\n      swap2\n      swap1\n      pop\n      jump\t// out\n\n    auxdata: 0xa264697066735822122024665645c9c06b0d12ca20bc8bd69847f534b616429bc621300e70cf59c7bf7d64736f6c634300081e0033\n}\n",
				"bytecode": {
					"linkReferences": {},
					"object": "60a0604052600180553373ffffffffffffffffffffffffffffffffffffffff1660809073ffffffffffffffffffffffffffffffffffffffff168152503480156045575f5ffd5b506080516107dd6100655f395f818161019901526101c301526107dd5ff3fe608060405234801561000f575f5ffd5b5060043610610060575f3560e01c806305f37a9914610064578063805265e5146100945780638da5cb5b146100c45780639d888e86146100e2578063b9830ff114610100578063fc36e15b1461010a575b5f5ffd5b61007e60048036038101906100799190610479565b610126565b60405161008b91906104e2565b60405180910390f35b6100ae60048036038101906100a99190610558565b61015d565b6040516100bb91906104e2565b60405180910390f35b6100cc610197565b6040516100d991906105e2565b60405180910390f35b6100ea6101bb565b6040516100f791906104e2565b60405180910390f35b6101086101c1565b005b610124600480360381019061011f9190610558565b610269565b005b5f602052815f5260405f20818051602081018201805184825260208301602085012081835280955050505050505f91509150505481565b5f5f5f60015481526020019081526020015f208383604051610180929190610629565b908152602001604051809103902054905092915050565b7f000000000000000000000000000000000000000000000000000000000000000081565b60015481565b7f000000000000000000000000000000000000000000000000000000000000000073ffffffffffffffffffffffffffffffffffffffff163373ffffffffffffffffffffffffffffffffffffffff161461024f576040517f08c379a00000000000000000000000000000000000000000000000000000000081526004016102469061069b565b60405180910390fd5b6001805f82825461026091906106e6565b92505081905550565b5f82829050116102ae576040517f08c379a00000000000000000000000000000000000000000000000000000000081526004016102a590610789565b60405180910390fd5b60015f5f60015481526020019081526020015f2083836040516102d2929190610629565b90815260200160405180910390205f8282546102ee91906106e6565b925050819055505050565b5f604051905090565b5f5ffd5b5f5ffd5b5f819050919050565b61031c8161030a565b8114610326575f5ffd5b50565b5f8135905061033781610313565b92915050565b5f5ffd5b5f5ffd5b5f601f19601f8301169050919050565b7f4e487b71000000000000000000000000000000000000000000000000000000005f52604160045260245ffd5b61038b82610345565b810181811067ffffffffffffffff821117156103aa576103a9610355565b5b80604052505050565b5f6103bc6102f9565b90506103c88282610382565b919050565b5f67ffffffffffffffff8211156103e7576103e6610355565b5b6103f082610345565b9050602081019050919050565b828183375f83830152505050565b5f61041d610418846103cd565b6103b3565b90508281526020810184848401111561043957610438610341565b5b6104448482856103fd565b509392505050565b5f82601f8301126104605761045f61033d565b5b813561047084826020860161040b565b91505092915050565b5f5f6040838503121561048f5761048e610302565b5b5f61049c85828601610329565b925050602083013567ffffffffffffffff8111156104bd576104bc610306565b5b6104c98582860161044c565b9150509250929050565b6104dc8161030a565b82525050565b5f6020820190506104f55f8301846104d3565b92915050565b5f5ffd5b5f5ffd5b5f5f83601f8401126105185761051761033d565b5b8235905067ffffffffffffffff811115610535576105346104fb565b5b602083019150836001820283011115610551576105506104ff565b5b9250929050565b5f5f6020838503121561056e5761056d610302565b5b5f83013567ffffffffffffffff81111561058b5761058a610306565b5b61059785828601610503565b92509250509250929050565b5f73ffffffffffffffffffffffffffffffffffffffff82169050919050565b5f6105cc826105a3565b9050919050565b6105dc816105c2565b82525050565b5f6020820190506105f55f8301846105d3565b92915050565b5f81905092915050565b5f61061083856105fb565b935061061d8385846103fd565b82840190509392505050565b5f610635828486610605565b91508190509392505050565b5f82825260208201905092915050565b7f4f6e6c79206f776e65722063616e20726573657420766f7465730000000000005f82015250565b5f610685601a83610641565b915061069082610651565b602082019050919050565b5f6020820190508181035f8301526106b281610679565b9050919050565b7f4e487b71000000000000000000000000000000000000000000000000000000005f52601160045260245ffd5b5f6106f08261030a565b91506106fb8361030a565b9250828201905080821115610713576107126106b9565b5b92915050565b7f63616e6469646174654e616d65206e616d652063616e6e6f7420626520656d705f8201527f7479000000000000000000000000000000000000000000000000000000000000602082015250565b5f610773602283610641565b915061077e82610719565b604082019050919050565b5f6020820190508181035f8301526107a081610767565b905091905056fea264697066735822122024665645c9c06b0d12ca20bc8bd69847f534b616429bc621300e70cf59c7bf7d64736f6c634300081e0033",
					"opcodes": "PUSH1 0xA0 PUSH1 0x40 MSTORE PUSH1 0x1 DUP1 SSTORE CALLER PUSH20 0xFFFFFFFFFFFFFFFFFFFFFFFFFFFFFFFFFFFFFFFF AND PUSH1 0x80 SWAP1 PUSH20 0xFFFFFFFFFFFFFFFFFFFFFFFFFFFFFFFFFFFFFFFF AND DUP2 MSTORE POP CALLVALUE DUP1 ISZERO PUSH1 0x45 JUMPI PUSH0 PUSH0 REVERT JUMPDEST POP PUSH1 0x80 MLOAD PUSH2 0x7DD PUSH2 0x65 PUSH0 CODECOPY PUSH0 DUP2 DUP2 PUSH2 0x199 ADD MSTORE PUSH2 0x1C3 ADD MSTORE PUSH2 0x7DD PUSH0 RETURN INVALID PUSH1 0x80 PUSH1 0x40 MSTORE CALLVALUE DUP1 ISZERO PUSH2 0xF JUMPI PUSH0 PUSH0 REVERT JUMPDEST POP PUSH1 0x4 CALLDATASIZE LT PUSH2 0x60 JUMPI PUSH0 CALLDATALOAD PUSH1 0xE0 SHR DUP1 PUSH4 0x5F37A99 EQ PUSH2 0x64 JUMPI DUP1 PUSH4 0x805265E5 EQ PUSH2 0x94 JUMPI DUP1 PUSH4 0x8DA5CB5B EQ PUSH2 0xC4 JUMPI DUP1 PUSH4 0x9D888E86 EQ PUSH2 0xE2 JUMPI DUP1 PUSH4 0xB9830FF1 EQ PUSH2 0x100 JUMPI DUP1 PUSH4 0xFC36E15B EQ PUSH2 0x10A JUMPI JUMPDEST PUSH0 PUSH0 REVERT JUMPDEST PUSH2 0x7E PUSH1 0x4 DUP1 CALLDATASIZE SUB DUP2 ADD SWAP1 PUSH2 0x79 SWAP2 SWAP1 PUSH2 0x479 JUMP JUMPDEST PUSH2 0x126 JUMP JUMPDEST PUSH1 0x40 MLOAD PUSH2 0x8B SWAP2 SWAP1 PUSH2 0x4E2 JUMP JUMPDEST PUSH1 0x40 MLOAD DUP1 SWAP2 SUB SWAP1 RETURN JUMPDEST PUSH2 0xAE PUSH1 0x4 DUP1 CALLDATASIZE SUB DUP2 ADD SWAP1 PUSH2 0xA9 SWAP2 SWAP1 PUSH2 0x558 JUMP JUMPDEST PUSH2 0x15D JUMP JUMPDEST PUSH1 0x40 MLOAD PUSH2 0xBB SWAP2 SWAP1 PUSH2 0x4E2 JUMP JUMPDEST PUSH1 0x40 MLOAD DUP1 SWAP2 SUB SWAP1 RETURN JUMPDEST PUSH2 0xCC PUSH2 0x197 JUMP JUMPDEST PUSH1 0x40 MLOAD PUSH2 0xD9 SWAP2 SWAP1 PUSH2 0x5E2 JUMP JUMPDEST PUSH1 0x40 MLOAD DUP1 SWAP2 SUB SWAP1 RETURN JUMPDEST PUSH2 0xEA PUSH2 0x1BB JUMP JUMPDEST PUSH1 0x40 MLOAD PUSH2 0xF7 SWAP2 SWAP1 PUSH2 0x4E2 JUMP JUMPDEST PUSH1 0x40 MLOAD DUP1 SWAP2 SUB SWAP1 RETURN JUMPDEST PUSH2 0x108 PUSH2 0x1C1 JUMP JUMPDEST STOP JUMPDEST PUSH2 0x124 PUSH1 0x4 DUP1 CALLDATASIZE SUB DUP2 ADD SWAP1 PUSH2 0x11F SWAP2 SWAP1 PUSH2 0x558 JUMP JUMPDEST PUSH2 0x269 JUMP JUMPDEST STOP JUMPDEST PUSH0 PUSH1 0x20 MSTORE DUP2 PUSH0 MSTORE PUSH1 0x40 PUSH0 KECCAK256 DUP2 DUP1 MLOAD PUSH1 0x20 DUP2 ADD DUP3 ADD DUP1 MLOAD DUP5 DUP3 MSTORE PUSH1 0x20 DUP4 ADD PUSH1 0x20 DUP6 ADD KECCAK256 DUP2 DUP4 MSTORE DUP1 SWAP6 POP POP POP POP POP POP PUSH0 SWAP2 POP SWAP2 POP POP SLOAD DUP2 JUMP JUMPDEST PUSH0 PUSH0 PUSH0 PUSH1 0x1 SLOAD DUP2 MSTORE PUSH1 0x20 ADD SWAP1 DUP2 MSTORE PUSH1 0x20 ADD PUSH0 KECCAK256 DUP4 DUP4 PUSH1 0x40 MLOAD PUSH2 0x180 SWAP3 SWAP2 SWAP1 PUSH2 0x629 JUMP JUMPDEST SWAP1 DUP2 MSTORE PUSH1 0x20 ADD PUSH1 0x40 MLOAD DUP1 SWAP2 SUB SWAP1 KECCAK256 SLOAD SWAP1 POP SWAP3 SWAP2 POP POP JUMP JUMPDEST PUSH32 0x0 DUP2 JUMP JUMPDEST PUSH1 0x1 SLOAD DUP2 JUMP JUMPDEST PUSH32 0x0 PUSH20 0xFFFFFFFFFFFFFFFFFFFFFFFFFFFFFFFFFFFFFFFF AND CALLER PUSH20 0xFFFFFFFFFFFFFFFFFFFFFFFFFFFFFFFFFFFFFFFF AND EQ PUSH2 0x24F JUMPI PUSH1 0x40 MLOAD PUSH32 0x8C379A000000000000000000000000000000000000000000000000000000000 DUP2 MSTORE PUSH1 0x4 ADD PUSH2 0x246 SWAP1 PUSH2 0x69B JUMP JUMPDEST PUSH1 0x40 MLOAD DUP1 SWAP2 SUB SWAP1 REVERT JUMPDEST PUSH1 0x1 DUP1 PUSH0 DUP3 DUP3 SLOAD PUSH2 0x260 SWAP2 SWAP1 PUSH2 0x6E6 JUMP JUMPDEST SWAP3 POP POP DUP2 SWAP1 SSTORE POP JUMP JUMPDEST PUSH0 DUP3 DUP3 SWAP1 POP GT PUSH2 0x2AE JUMPI PUSH1 0x40 MLOAD PUSH32 0x8C379A000000000000000000000000000000000000000000000000000000000 DUP2 MSTORE PUSH1 0x4 ADD PUSH2 0x2A5 SWAP1 PUSH2 0x789 JUMP JUMPDEST PUSH1 0x40 MLOAD DUP1 SWAP2 SUB SWAP1 REVERT JUMPDEST PUSH1 0x1 PUSH0 PUSH0 PUSH1 0x1 SLOAD DUP2 MSTORE PUSH1 0x20 ADD SWAP1 DUP2 MSTORE PUSH1 0x20 ADD PUSH0 KECCAK256 DUP4 DUP4 PUSH1 0x40 MLOAD PUSH2 0x2D2 SWAP3 SWAP2 SWAP1 PUSH2 0x629 JUMP JUMPDEST SWAP1 DUP2 MSTORE PUSH1 0x20 ADD PUSH1 0x40 MLOAD DUP1 SWAP2 SUB SWAP1 KECCAK256 PUSH0 DUP3 DUP3 SLOAD PUSH2 0x2EE SWAP2 SWAP1 PUSH2 0x6E6 JUMP JUMPDEST SWAP3 POP POP DUP2 SWAP1 SSTORE POP POP POP JUMP JUMPDEST PUSH0 PUSH1 0x40 MLOAD SWAP1 POP SWAP1 JUMP JUMPDEST PUSH0 PUSH0 REVERT JUMPDEST PUSH0 PUSH0 REVERT JUMPDEST PUSH0 DUP2 SWAP1 POP SWAP2 SWAP1 POP JUMP JUMPDEST PUSH2 0x31C DUP2 PUSH2 0x30A JUMP JUMPDEST DUP2 EQ PUSH2 0x326 JUMPI PUSH0 PUSH0 REVERT JUMPDEST POP JUMP JUMPDEST PUSH0 DUP2 CALLDATALOAD SWAP1 POP PUSH2 0x337 DUP2 PUSH2 0x313 JUMP JUMPDEST SWAP3 SWAP2 POP POP JUMP JUMPDEST PUSH0 PUSH0 REVERT JUMPDEST PUSH0 PUSH0 REVERT JUMPDEST PUSH0 PUSH1 0x1F NOT PUSH1 0x1F DUP4 ADD AND SWAP1 POP SWAP2 SWAP1 POP JUMP JUMPDEST PUSH32 0x4E487B7100000000000000000000000000000000000000000000000000000000 PUSH0 MSTORE PUSH1 0x41 PUSH1 0x4 MSTORE PUSH1 0x24 PUSH0 REVERT JUMPDEST PUSH2 0x38B DUP3 PUSH2 0x345 JUMP JUMPDEST DUP2 ADD DUP2 DUP2 LT PUSH8 0xFFFFFFFFFFFFFFFF DUP3 GT OR ISZERO PUSH2 0x3AA JUMPI PUSH2 0x3A9 PUSH2 0x355 JUMP JUMPDEST JUMPDEST DUP1 PUSH1 0x40 MSTORE POP POP POP JUMP JUMPDEST PUSH0 PUSH2 0x3BC PUSH2 0x2F9 JUMP JUMPDEST SWAP1 POP PUSH2 0x3C8 DUP3 DUP3 PUSH2 0x382 JUMP JUMPDEST SWAP2 SWAP1 POP JUMP JUMPDEST PUSH0 PUSH8 0xFFFFFFFFFFFFFFFF DUP3 GT ISZERO PUSH2 0x3E7 JUMPI PUSH2 0x3E6 PUSH2 0x355 JUMP JUMPDEST JUMPDEST PUSH2 0x3F0 DUP3 PUSH2 0x345 JUMP JUMPDEST SWAP1 POP PUSH1 0x20 DUP2 ADD SWAP1 POP SWAP2 SWAP1 POP JUMP JUMPDEST DUP3 DUP2 DUP4 CALLDATACOPY PUSH0 DUP4 DUP4 ADD MSTORE POP POP POP JUMP JUMPDEST PUSH0 PUSH2 0x41D PUSH2 0x418 DUP5 PUSH2 0x3CD JUMP JUMPDEST PUSH2 0x3B3 JUMP JUMPDEST SWAP1 POP DUP3 DUP2 MSTORE PUSH1 0x20 DUP2 ADD DUP5 DUP5 DUP5 ADD GT ISZERO PUSH2 0x439 JUMPI PUSH2 0x438 PUSH2 0x341 JUMP JUMPDEST JUMPDEST PUSH2 0x444 DUP5 DUP3 DUP6 PUSH2 0x3FD JUMP JUMPDEST POP SWAP4 SWAP3 POP POP POP JUMP JUMPDEST PUSH0 DUP3 PUSH1 0x1F DUP4 ADD SLT PUSH2 0x460 JUMPI PUSH2 0x45F PUSH2 0x33D JUMP JUMPDEST JUMPDEST DUP2 CALLDATALOAD PUSH2 0x470 DUP5 DUP3 PUSH1 0x20 DUP7 ADD PUSH2 0x40B JUMP JUMPDEST SWAP2 POP POP SWAP3 SWAP2 POP POP JUMP JUMPDEST PUSH0 PUSH0 PUSH1 0x40 DUP4 DUP6 SUB SLT ISZERO PUSH2 0x48F JUMPI PUSH2 0x48E PUSH2 0x302 JUMP JUMPDEST JUMPDEST PUSH0 PUSH2 0x49C DUP6 DUP3 DUP7 ADD PUSH2 0x329 JUMP JUMPDEST SWAP3 POP POP PUSH1 0x20 DUP4 ADD CALLDATALOAD PUSH8 0xFFFFFFFFFFFFFFFF DUP2 GT ISZERO PUSH2 0x4BD JUMPI PUSH2 0x4BC PUSH2 0x306 JUMP JUMPDEST JUMPDEST PUSH2 0x4C9 DUP6 DUP3 DUP7 ADD PUSH2 0x44C JUMP JUMPDEST SWAP2 POP POP SWAP3 POP SWAP3 SWAP1 POP JUMP JUMPDEST PUSH2 0x4DC DUP2 PUSH2 0x30A JUMP JUMPDEST DUP3 MSTORE POP POP JUMP JUMPDEST PUSH0 PUSH1 0x20 DUP3 ADD SWAP1 POP PUSH2 0x4F5 PUSH0 DUP4 ADD DUP5 PUSH2 0x4D3 JUMP JUMPDEST SWAP3 SWAP2 POP POP JUMP JUMPDEST PUSH0 PUSH0 REVERT JUMPDEST PUSH0 PUSH0 REVERT JUMPDEST PUSH0 PUSH0 DUP4 PUSH1 0x1F DUP5 ADD SLT PUSH2 0x518 JUMPI PUSH2 0x517 PUSH2 0x33D JUMP JUMPDEST JUMPDEST DUP3 CALLDATALOAD SWAP1 POP PUSH8 0xFFFFFFFFFFFFFFFF DUP2 GT ISZERO PUSH2 0x535 JUMPI PUSH2 0x534 PUSH2 0x4FB JUMP JUMPDEST JUMPDEST PUSH1 0x20 DUP4 ADD SWAP2 POP DUP4 PUSH1 0x1 DUP3 MUL DUP4 ADD GT ISZERO PUSH2 0x551 JUMPI PUSH2 0x550 PUSH2 0x4FF JUMP JUMPDEST JUMPDEST SWAP3 POP SWAP3 SWAP1 POP JUMP JUMPDEST PUSH0 PUSH0 PUSH1 0x20 DUP4 DUP6 SUB SLT ISZERO PUSH2 0x56E JUMPI PUSH2 0x56D PUSH2 0x302 JUMP JUMPDEST JUMPDEST PUSH0 DUP4 ADD CALLDATALOAD PUSH8 0xFFFFFFFFFFFFFFFF DUP2 GT ISZERO PUSH2 0x58B JUMPI PUSH2 0x58A PUSH2 0x306 JUMP JUMPDEST JUMPDEST PUSH2 0x597 DUP6 DUP3 DUP7 ADD PUSH2 0x503 JUMP JUMPDEST SWAP3 POP SWAP3 POP POP SWAP3 POP SWAP3 SWAP1 POP JUMP JUMPDEST PUSH0 PUSH20 0xFFFFFFFFFFFFFFFFFFFFFFFFFFFFFFFFFFFFFFFF DUP3 AND SWAP1 POP SWAP2 SWAP1 POP JUMP JUMPDEST PUSH0 PUSH2 0x5CC DUP3 PUSH2 0x5A3 JUMP JUMPDEST SWAP1 POP SWAP2 SWAP1 POP JUMP JUMPDEST PUSH2 0x5DC DUP2 PUSH2 0x5C2 JUMP JUMPDEST DUP3 MSTORE POP POP JUMP JUMPDEST PUSH0 PUSH1 0x20 DUP3 ADD SWAP1 POP PUSH2 0x5F5 PUSH0 DUP4 ADD DUP5 PUSH2 0x5D3 JUMP JUMPDEST SWAP3 SWAP2 POP POP JUMP JUMPDEST PUSH0 DUP2 SWAP1 POP SWAP3 SWAP2 POP POP JUMP JUMPDEST PUSH0 PUSH2 0x610 DUP4 DUP6 PUSH2 0x5FB JUMP JUMPDEST SWAP4 POP PUSH2 0x61D DUP4 DUP6 DUP5 PUSH2 0x3FD JUMP JUMPDEST DUP3 DUP5 ADD SWAP1 POP SWAP4 SWAP3 POP POP POP JUMP JUMPDEST PUSH0 PUSH2 0x635 DUP3 DUP5 DUP7 PUSH2 0x605 JUMP JUMPDEST SWAP2 POP DUP2 SWAP1 POP SWAP4 SWAP3 POP POP POP JUMP JUMPDEST PUSH0 DUP3 DUP3 MSTORE PUSH1 0x20 DUP3 ADD SWAP1 POP SWAP3 SWAP2 POP POP JUMP JUMPDEST PUSH32 0x4F6E6C79206F776E65722063616E20726573657420766F746573000000000000 PUSH0 DUP3 ADD MSTORE POP JUMP JUMPDEST PUSH0 PUSH2 0x685 PUSH1 0x1A DUP4 PUSH2 0x641 JUMP JUMPDEST SWAP2 POP PUSH2 0x690 DUP3 PUSH2 0x651 JUMP JUMPDEST PUSH1 0x20 DUP3 ADD SWAP1 POP SWAP2 SWAP1 POP JUMP JUMPDEST PUSH0 PUSH1 0x20 DUP3 ADD SWAP1 POP DUP2 DUP2 SUB PUSH0 DUP4 ADD MSTORE PUSH2 0x6B2 DUP2 PUSH2 0x679 JUMP JUMPDEST SWAP1 POP SWAP2 SWAP1 POP JUMP JUMPDEST PUSH32 0x4E487B7100000000000000000000000000000000000000000000000000000000 PUSH0 MSTORE PUSH1 0x11 PUSH1 0x4 MSTORE PUSH1 0x24 PUSH0 REVERT JUMPDEST PUSH0 PUSH2 0x6F0 DUP3 PUSH2 0x30A JUMP JUMPDEST SWAP2 POP PUSH2 0x6FB DUP4 PUSH2 0x30A JUMP JUMPDEST SWAP3 POP DUP3 DUP3 ADD SWAP1 POP DUP1 DUP3 GT ISZERO PUSH2 0x713 JUMPI PUSH2 0x712 PUSH2 0x6B9 JUMP JUMPDEST JUMPDEST SWAP3 SWAP2 POP POP JUMP JUMPDEST PUSH32 0x63616E6469646174654E616D65206E616D652063616E6E6F7420626520656D70 PUSH0 DUP3 ADD MSTORE PUSH32 0x7479000000000000000000000000000000000000000000000000000000000000 PUSH1 0x20 DUP3 ADD MSTORE POP JUMP JUMPDEST PUSH0 PUSH2 0x773 PUSH1 0x22 DUP4 PUSH2 0x641 JUMP JUMPDEST SWAP2 POP PUSH2 0x77E DUP3 PUSH2 0x719 JUMP JUMPDEST PUSH1 0x40 DUP3 ADD SWAP1 POP SWAP2 SWAP1 POP JUMP JUMPDEST PUSH0 PUSH1 0x20 DUP3 ADD SWAP1 POP DUP2 DUP2 SUB PUSH0 DUP4 ADD MSTORE PUSH2 0x7A0 DUP2 PUSH2 0x767 JUMP JUMPDEST SWAP1 POP SWAP2 SWAP1 POP JUMP INVALID LOG2 PUSH5 0x6970667358 0x22 SLT KECCAK256 0x24 PUSH7 0x5645C9C06B0D12 0xCA KECCAK256 0xBC DUP12 0xD6 SWAP9 SELFBALANCE CREATE2 CALLVALUE 0xB6 AND TIMESTAMP SWAP12 0xC6 0x21 ADDRESS 0xE PUSH17 0xCF59C7BF7D64736F6C634300081E003300 "
				},
				"gasEstimates": {
					"creation": {
						"codeDepositCost": "402600",
						"executionCost": "infinite",
						"totalCost": "infinite"
					},
					"external": {
						"candidateVotes(uint256,string)": "infinite",
						"currentVersion()": "2469",
						"getVotes(string)": "infinite",
						"owner()": "infinite",
						"resetVotes()": "infinite",
						"vote(string)": "infinite"
					}
				},
				"methodIdentifiers": {
					"candidateVotes(uint256,string)": "05f37a99",
					"currentVersion()": "9d888e86",
					"getVotes(string)": "805265e5",
					"owner()": "8da5cb5b",
					"resetVotes()": "b9830ff1",
					"vote(string)": "fc36e15b"
				}
			},
			"storageLayout": {
				"storage": [
					{
						"astId": 7,
						"contract": "soliproblems/Voting.sol:Voting",
						"label": "candidateVotes",
						"offset": 0,
						"slot": "0",
						"type": "t_mapping(t_uint256,t_mapping(t_string_memory_ptr,t_uint256))"
					},
					{
						"astId": 10,
						"contract": "soliproblems/Voting.sol:Voting",
						"label": "currentVersion",
						"offset": 0,
						"slot": "1",
						"type": "t_uint256"
					}
				],
				"types": {
					"t_mapping(t_string_memory_ptr,t_uint256)": {
						"encoding": "mapping",
						"key": "t_string_memory_ptr",
						"label": "mapping(string => uint256)",
						"numberOfBytes": "32",
						"value": "t_uint256"
					},
					"t_mapping(t_uint256,t_mapping(t_string_memory_ptr,t_uint256))": {
						"encoding": "mapping",
						"key": "t_uint256",
						"label": "mapping(uint256 => mapping(string => uint256))",
						"numberOfBytes": "32",
						"value": "t_mapping(t_string_memory_ptr,t_uint256)"
					},
					"t_string_memory_ptr": {
						"encoding": "bytes",
						"label": "string",
						"numberOfBytes": "32"
					},
					"t_uint256": {
						"encoding": "inplace",
						"label": "uint256",
						"numberOfBytes": "32"
					}
				}
			},
			"userdoc": {
				"kind": "user",
				"methods": {},
				"version": 1
			}
		}
	}
}