{
	"soliproblems/IntegerToRoman.sol": {
		"IntegerToRoman": {
			"abi": [
				{
					"inputs": [
						{
							"internalType": "uint256",
							"name": "num",
							"type": "uint256"
						}
					],
					"name": "intToRoman",
					"outputs": [
						{
							"internalType": "string",
							"name": "",
							"type": "string"
						}
					],
					"stateMutability": "pure",
					"type": "function"
				}
			],
			"devdoc": {
				"kind": "dev",
				"methods": {},
				"version": 1
			},
			"evm": {
				"assembly": "    /* \"soliproblems/IntegerToRoman.sol\":61:944  contract IntegerToRoman {... */\n  mstore(0x40, 0x80)\n  callvalue\n  dup1\n  iszero\n  tag_1\n  jumpi\n  revert(0x00, 0x00)\ntag_1:\n  pop\n  dataSize(sub_0)\n  dup1\n  dataOffset(sub_0)\n  0x00\n  codecopy\n  0x00\n  return\nstop\n\nsub_0: assembly {\n        /* \"soliproblems/IntegerToRoman.sol\":61:944  contract IntegerToRoman {... */\n      mstore(0x40, 0x80)\n      callvalue\n      dup1\n      iszero\n      tag_1\n      jumpi\n      revert(0x00, 0x00)\n    tag_1:\n      pop\n      jumpi(tag_2, lt(calldatasize, 0x04))\n      shr(0xe0, calldataload(0x00))\n      dup1\n      0x0cbc513a\n      eq\n      tag_3\n      jumpi\n    tag_2:\n      revert(0x00, 0x00)\n        /* \"soliproblems/IntegerToRoman.sol\":92:941  function intToRoman(uint256 num) external pure returns (string memory) {... */\n    tag_3:\n      tag_4\n      0x04\n      dup1\n      calldatasize\n      sub\n      dup2\n      add\n      swap1\n      tag_5\n      swap2\n      swap1\n      tag_6\n      jump\t// in\n    tag_5:\n      tag_7\n      jump\t// in\n    tag_4:\n      mload(0x40)\n      tag_8\n      swap2\n      swap1\n      tag_9\n      jump\t// in\n    tag_8:\n      mload(0x40)\n      dup1\n      swap2\n      sub\n      swap1\n      return\n    tag_7:\n        /* \"soliproblems/IntegerToRoman.sol\":148:161  string memory */\n      0x60\n        /* \"soliproblems/IntegerToRoman.sol\":189:190  1 */\n      0x01\n        /* \"soliproblems/IntegerToRoman.sol\":182:185  num */\n      dup3\n        /* \"soliproblems/IntegerToRoman.sol\":182:190  num >= 1 */\n      lt\n      iszero\n        /* \"soliproblems/IntegerToRoman.sol\":182:205  num >= 1 && num <= 3999 */\n      dup1\n      iszero\n      tag_11\n      jumpi\n      pop\n        /* \"soliproblems/IntegerToRoman.sol\":201:205  3999 */\n      0x0f9f\n        /* \"soliproblems/IntegerToRoman.sol\":194:197  num */\n      dup3\n        /* \"soliproblems/IntegerToRoman.sol\":194:205  num <= 3999 */\n      gt\n      iszero\n        /* \"soliproblems/IntegerToRoman.sol\":182:205  num >= 1 && num <= 3999 */\n    tag_11:\n        /* \"soliproblems/IntegerToRoman.sol\":174:228  require(num >= 1 && num <= 3999, \"Input out of range\") */\n      tag_12\n      jumpi\n      mload(0x40)\n      0x08c379a000000000000000000000000000000000000000000000000000000000\n      dup2\n      mstore\n      0x04\n      add\n      tag_13\n      swap1\n      tag_14\n      jump\t// in\n    tag_13:\n      mload(0x40)\n      dup1\n      swap2\n      sub\n      swap1\n      revert\n    tag_12:\n        /* \"soliproblems/IntegerToRoman.sol\":289:314  uint256[13] memory values */\n      0x00\n        /* \"soliproblems/IntegerToRoman.sol\":289:538  uint256[13] memory values = [... */\n      mload(0x40)\n      dup1\n      0x01a0\n      add\n      0x40\n      mstore\n      dup1\n        /* \"soliproblems/IntegerToRoman.sol\":340:344  1000 */\n      0x03e8\n        /* \"soliproblems/IntegerToRoman.sol\":289:538  uint256[13] memory values = [... */\n      dup2\n      mstore\n      0x20\n      add\n        /* \"soliproblems/IntegerToRoman.sol\":355:358  900 */\n      0x0384\n        /* \"soliproblems/IntegerToRoman.sol\":289:538  uint256[13] memory values = [... */\n      dup2\n      mstore\n      0x20\n      add\n        /* \"soliproblems/IntegerToRoman.sol\":369:372  500 */\n      0x01f4\n        /* \"soliproblems/IntegerToRoman.sol\":289:538  uint256[13] memory values = [... */\n      dup2\n      mstore\n      0x20\n      add\n        /* \"soliproblems/IntegerToRoman.sol\":383:386  400 */\n      0x0190\n        /* \"soliproblems/IntegerToRoman.sol\":289:538  uint256[13] memory values = [... */\n      dup2\n      mstore\n      0x20\n      add\n        /* \"soliproblems/IntegerToRoman.sol\":410:413  100 */\n      0x64\n        /* \"soliproblems/IntegerToRoman.sol\":289:538  uint256[13] memory values = [... */\n      dup2\n      mstore\n      0x20\n      add\n        /* \"soliproblems/IntegerToRoman.sol\":424:426  90 */\n      0x5a\n        /* \"soliproblems/IntegerToRoman.sol\":289:538  uint256[13] memory values = [... */\n      dup2\n      mstore\n      0x20\n      add\n        /* \"soliproblems/IntegerToRoman.sol\":437:439  50 */\n      0x32\n        /* \"soliproblems/IntegerToRoman.sol\":289:538  uint256[13] memory values = [... */\n      dup2\n      mstore\n      0x20\n      add\n        /* \"soliproblems/IntegerToRoman.sol\":450:452  40 */\n      0x28\n        /* \"soliproblems/IntegerToRoman.sol\":289:538  uint256[13] memory values = [... */\n      dup2\n      mstore\n      0x20\n      add\n        /* \"soliproblems/IntegerToRoman.sol\":476:478  10 */\n      0x0a\n        /* \"soliproblems/IntegerToRoman.sol\":289:538  uint256[13] memory values = [... */\n      dup2\n      mstore\n      0x20\n      add\n        /* \"soliproblems/IntegerToRoman.sol\":489:490  9 */\n      0x09\n        /* \"soliproblems/IntegerToRoman.sol\":289:538  uint256[13] memory values = [... */\n      dup2\n      mstore\n      0x20\n      add\n        /* \"soliproblems/IntegerToRoman.sol\":501:502  5 */\n      0x05\n        /* \"soliproblems/IntegerToRoman.sol\":289:538  uint256[13] memory values = [... */\n      dup2\n      mstore\n      0x20\n      add\n        /* \"soliproblems/IntegerToRoman.sol\":513:514  4 */\n      0x04\n        /* \"soliproblems/IntegerToRoman.sol\":289:538  uint256[13] memory values = [... */\n      dup2\n      mstore\n      0x20\n      add\n        /* \"soliproblems/IntegerToRoman.sol\":525:526  1 */\n      0x01\n        /* \"soliproblems/IntegerToRoman.sol\":289:538  uint256[13] memory values = [... */\n      dup2\n      mstore\n      pop\n      swap1\n      pop\n        /* \"soliproblems/IntegerToRoman.sol\":551:576  string[13] memory symbols */\n      0x00\n        /* \"soliproblems/IntegerToRoman.sol\":551:650  string[13] memory symbols = [\"M\", \"CM\", \"D\", \"CD\", \"C\", \"XC\", \"L\", \"XL\", \"X\", \"IX\", \"V\", \"IV\", \"I\"] */\n      mload(0x40)\n      dup1\n      0x01a0\n      add\n      0x40\n      mstore\n      dup1\n      mload(0x40)\n      dup1\n      0x40\n      add\n      0x40\n      mstore\n      dup1\n      0x01\n      dup2\n      mstore\n      0x20\n      add\n      0x4d00000000000000000000000000000000000000000000000000000000000000\n      dup2\n      mstore\n      pop\n      dup2\n      mstore\n      0x20\n      add\n      mload(0x40)\n      dup1\n      0x40\n      add\n      0x40\n      mstore\n      dup1\n      0x02\n      dup2\n      mstore\n      0x20\n      add\n      0x434d000000000000000000000000000000000000000000000000000000000000\n      dup2\n      mstore\n      pop\n      dup2\n      mstore\n      0x20\n      add\n      mload(0x40)\n      dup1\n      0x40\n      add\n      0x40\n      mstore\n      dup1\n      0x01\n      dup2\n      mstore\n      0x20\n      add\n      0x4400000000000000000000000000000000000000000000000000000000000000\n      dup2\n      mstore\n      pop\n      dup2\n      mstore\n      0x20\n      add\n      mload(0x40)\n      dup1\n      0x40\n      add\n      0x40\n      mstore\n      dup1\n      0x02\n      dup2\n      mstore\n      0x20\n      add\n      0x4344000000000000000000000000000000000000000000000000000000000000\n      dup2\n      mstore\n      pop\n      dup2\n      mstore\n      0x20\n      add\n      mload(0x40)\n      dup1\n      0x40\n      add\n      0x40\n      mstore\n      dup1\n      0x01\n      dup2\n      mstore\n      0x20\n      add\n      0x4300000000000000000000000000000000000000000000000000000000000000\n      dup2\n      mstore\n      pop\n      dup2\n      mstore\n      0x20\n      add\n      mload(0x40)\n      dup1\n      0x40\n      add\n      0x40\n      mstore\n      dup1\n      0x02\n      dup2\n      mstore\n      0x20\n      add\n      0x5843000000000000000000000000000000000000000000000000000000000000\n      dup2\n      mstore\n      pop\n      dup2\n      mstore\n      0x20\n      add\n      mload(0x40)\n      dup1\n      0x40\n      add\n      0x40\n      mstore\n      dup1\n      0x01\n      dup2\n      mstore\n      0x20\n      add\n      0x4c00000000000000000000000000000000000000000000000000000000000000\n      dup2\n      mstore\n      pop\n      dup2\n      mstore\n      0x20\n      add\n      mload(0x40)\n      dup1\n      0x40\n      add\n      0x40\n      mstore\n      dup1\n      0x02\n      dup2\n      mstore\n      0x20\n      add\n      0x584c000000000000000000000000000000000000000000000000000000000000\n      dup2\n      mstore\n      pop\n      dup2\n      mstore\n      0x20\n      add\n      mload(0x40)\n      dup1\n      0x40\n      add\n      0x40\n      mstore\n      dup1\n      0x01\n      dup2\n      mstore\n      0x20\n      add\n      0x5800000000000000000000000000000000000000000000000000000000000000\n      dup2\n      mstore\n      pop\n      dup2\n      mstore\n      0x20\n      add\n      mload(0x40)\n      dup1\n      0x40\n      add\n      0x40\n      mstore\n      dup1\n      0x02\n      dup2\n      mstore\n      0x20\n      add\n      0x4958000000000000000000000000000000000000000000000000000000000000\n      dup2\n      mstore\n      pop\n      dup2\n      mstore\n      0x20\n      add\n      mload(0x40)\n      dup1\n      0x40\n      add\n      0x40\n      mstore\n      dup1\n      0x01\n      dup2\n      mstore\n      0x20\n      add\n      0x5600000000000000000000000000000000000000000000000000000000000000\n      dup2\n      mstore\n      pop\n      dup2\n      mstore\n      0x20\n      add\n      mload(0x40)\n      dup1\n      0x40\n      add\n      0x40\n      mstore\n      dup1\n      0x02\n      dup2\n      mstore\n      0x20\n      add\n      0x4956000000000000000000000000000000000000000000000000000000000000\n      dup2\n      mstore\n      pop\n      dup2\n      mstore\n      0x20\n      add\n      mload(0x40)\n      dup1\n      0x40\n      add\n      0x40\n      mstore\n      dup1\n      0x01\n      dup2\n      mstore\n      0x20\n      add\n      0x4900000000000000000000000000000000000000000000000000000000000000\n      dup2\n      mstore\n      pop\n      dup2\n      mstore\n      pop\n      swap1\n      pop\n        /* \"soliproblems/IntegerToRoman.sol\":663:683  string memory result */\n      0x00\n        /* \"soliproblems/IntegerToRoman.sol\":663:688  string memory result = \"\" */\n      mload(0x40)\n      dup1\n      0x20\n      add\n      0x40\n      mstore\n      dup1\n      0x00\n      dup2\n      mstore\n      pop\n      swap1\n      pop\n        /* \"soliproblems/IntegerToRoman.sol\":706:715  uint256 i */\n      0x00\n        /* \"soliproblems/IntegerToRoman.sol\":718:719  0 */\n      0x00\n        /* \"soliproblems/IntegerToRoman.sol\":706:719  uint256 i = 0 */\n      swap1\n      pop\n        /* \"soliproblems/IntegerToRoman.sol\":701:908  for (uint256 i = 0; i < 13; i++) {... */\n    tag_15:\n        /* \"soliproblems/IntegerToRoman.sol\":725:727  13 */\n      0x0d\n        /* \"soliproblems/IntegerToRoman.sol\":721:722  i */\n      dup2\n        /* \"soliproblems/IntegerToRoman.sol\":721:727  i < 13 */\n      lt\n        /* \"soliproblems/IntegerToRoman.sol\":701:908  for (uint256 i = 0; i < 13; i++) {... */\n      iszero\n      tag_16\n      jumpi\n        /* \"soliproblems/IntegerToRoman.sol\":749:897  while (num >= values[i]) {... */\n    tag_18:\n        /* \"soliproblems/IntegerToRoman.sol\":763:769  values */\n      dup4\n        /* \"soliproblems/IntegerToRoman.sol\":770:771  i */\n      dup2\n        /* \"soliproblems/IntegerToRoman.sol\":763:772  values[i] */\n      0x0d\n      dup2\n      lt\n      tag_20\n      jumpi\n      tag_21\n      tag_22\n      jump\t// in\n    tag_21:\n    tag_20:\n      0x20\n      mul\n      add\n      mload\n        /* \"soliproblems/IntegerToRoman.sol\":756:759  num */\n      dup7\n        /* \"soliproblems/IntegerToRoman.sol\":756:772  num >= values[i] */\n      lt\n        /* \"soliproblems/IntegerToRoman.sol\":749:897  while (num >= values[i]) {... */\n      tag_19\n      jumpi\n        /* \"soliproblems/IntegerToRoman.sol\":826:832  result */\n      dup2\n        /* \"soliproblems/IntegerToRoman.sol\":834:841  symbols */\n      dup4\n        /* \"soliproblems/IntegerToRoman.sol\":842:843  i */\n      dup3\n        /* \"soliproblems/IntegerToRoman.sol\":834:844  symbols[i] */\n      0x0d\n      dup2\n      lt\n      tag_23\n      jumpi\n      tag_24\n      tag_22\n      jump\t// in\n    tag_24:\n    tag_23:\n      0x20\n      mul\n      add\n      mload\n        /* \"soliproblems/IntegerToRoman.sol\":809:845  abi.encodePacked(result, symbols[i]) */\n      add(0x20, mload(0x40))\n      tag_25\n      swap3\n      swap2\n      swap1\n      tag_26\n      jump\t// in\n    tag_25:\n      mload(0x40)\n      0x20\n      dup2\n      dup4\n      sub\n      sub\n      dup2\n      mstore\n      swap1\n      0x40\n      mstore\n        /* \"soliproblems/IntegerToRoman.sol\":793:846  result = string(abi.encodePacked(result, symbols[i])) */\n      swap2\n      pop\n        /* \"soliproblems/IntegerToRoman.sol\":872:878  values */\n      dup4\n        /* \"soliproblems/IntegerToRoman.sol\":879:880  i */\n      dup2\n        /* \"soliproblems/IntegerToRoman.sol\":872:881  values[i] */\n      0x0d\n      dup2\n      lt\n      tag_27\n      jumpi\n      tag_28\n      tag_22\n      jump\t// in\n    tag_28:\n    tag_27:\n      0x20\n      mul\n      add\n      mload\n        /* \"soliproblems/IntegerToRoman.sol\":865:881  num -= values[i] */\n      dup7\n      tag_29\n      swap2\n      swap1\n      tag_30\n      jump\t// in\n    tag_29:\n      swap6\n      pop\n        /* \"soliproblems/IntegerToRoman.sol\":749:897  while (num >= values[i]) {... */\n      jump(tag_18)\n    tag_19:\n        /* \"soliproblems/IntegerToRoman.sol\":729:732  i++ */\n      dup1\n      dup1\n      0x01\n      add\n      swap2\n      pop\n      pop\n        /* \"soliproblems/IntegerToRoman.sol\":701:908  for (uint256 i = 0; i < 13; i++) {... */\n      jump(tag_15)\n    tag_16:\n      pop\n        /* \"soliproblems/IntegerToRoman.sol\":927:933  result */\n      dup1\n        /* \"soliproblems/IntegerToRoman.sol\":920:933  return result */\n      swap4\n      pop\n      pop\n      pop\n      pop\n        /* \"soliproblems/IntegerToRoman.sol\":92:941  function intToRoman(uint256 num) external pure returns (string memory) {... */\n      swap2\n      swap1\n      pop\n      jump\t// out\n        /* \"#utility.yul\":88:205   */\n    tag_32:\n        /* \"#utility.yul\":197:198   */\n      0x00\n        /* \"#utility.yul\":194:195   */\n      0x00\n        /* \"#utility.yul\":187:199   */\n      revert\n        /* \"#utility.yul\":334:411   */\n    tag_34:\n        /* \"#utility.yul\":371:378   */\n      0x00\n        /* \"#utility.yul\":400:405   */\n      dup2\n        /* \"#utility.yul\":389:405   */\n      swap1\n      pop\n        /* \"#utility.yul\":334:411   */\n      swap2\n      swap1\n      pop\n      jump\t// out\n        /* \"#utility.yul\":417:539   */\n    tag_35:\n        /* \"#utility.yul\":490:514   */\n      tag_53\n        /* \"#utility.yul\":508:513   */\n      dup2\n        /* \"#utility.yul\":490:514   */\n      tag_34\n      jump\t// in\n    tag_53:\n        /* \"#utility.yul\":483:488   */\n      dup2\n        /* \"#utility.yul\":480:515   */\n      eq\n        /* \"#utility.yul\":470:533   */\n      tag_54\n      jumpi\n        /* \"#utility.yul\":529:530   */\n      0x00\n        /* \"#utility.yul\":526:527   */\n      0x00\n        /* \"#utility.yul\":519:531   */\n      revert\n        /* \"#utility.yul\":470:533   */\n    tag_54:\n        /* \"#utility.yul\":417:539   */\n      pop\n      jump\t// out\n        /* \"#utility.yul\":545:684   */\n    tag_36:\n        /* \"#utility.yul\":591:596   */\n      0x00\n        /* \"#utility.yul\":629:635   */\n      dup2\n        /* \"#utility.yul\":616:636   */\n      calldataload\n        /* \"#utility.yul\":607:636   */\n      swap1\n      pop\n        /* \"#utility.yul\":645:678   */\n      tag_56\n        /* \"#utility.yul\":672:677   */\n      dup2\n        /* \"#utility.yul\":645:678   */\n      tag_35\n      jump\t// in\n    tag_56:\n        /* \"#utility.yul\":545:684   */\n      swap3\n      swap2\n      pop\n      pop\n      jump\t// out\n        /* \"#utility.yul\":690:1019   */\n    tag_6:\n        /* \"#utility.yul\":749:755   */\n      0x00\n        /* \"#utility.yul\":798:800   */\n      0x20\n        /* \"#utility.yul\":786:795   */\n      dup3\n        /* \"#utility.yul\":777:784   */\n      dup5\n        /* \"#utility.yul\":773:796   */\n      sub\n        /* \"#utility.yul\":769:801   */\n      slt\n        /* \"#utility.yul\":766:885   */\n      iszero\n      tag_58\n      jumpi\n        /* \"#utility.yul\":804:883   */\n      tag_59\n      tag_32\n      jump\t// in\n    tag_59:\n        /* \"#utility.yul\":766:885   */\n    tag_58:\n        /* \"#utility.yul\":924:925   */\n      0x00\n        /* \"#utility.yul\":949:1002   */\n      tag_60\n        /* \"#utility.yul\":994:1001   */\n      dup5\n        /* \"#utility.yul\":985:991   */\n      dup3\n        /* \"#utility.yul\":974:983   */\n      dup6\n        /* \"#utility.yul\":970:992   */\n      add\n        /* \"#utility.yul\":949:1002   */\n      tag_36\n      jump\t// in\n    tag_60:\n        /* \"#utility.yul\":939:1002   */\n      swap2\n      pop\n        /* \"#utility.yul\":895:1012   */\n      pop\n        /* \"#utility.yul\":690:1019   */\n      swap3\n      swap2\n      pop\n      pop\n      jump\t// out\n        /* \"#utility.yul\":1025:1124   */\n    tag_37:\n        /* \"#utility.yul\":1077:1083   */\n      0x00\n        /* \"#utility.yul\":1111:1116   */\n      dup2\n        /* \"#utility.yul\":1105:1117   */\n      mload\n        /* \"#utility.yul\":1095:1117   */\n      swap1\n      pop\n        /* \"#utility.yul\":1025:1124   */\n      swap2\n      swap1\n      pop\n      jump\t// out\n        /* \"#utility.yul\":1130:1299   */\n    tag_38:\n        /* \"#utility.yul\":1214:1225   */\n      0x00\n        /* \"#utility.yul\":1248:1254   */\n      dup3\n        /* \"#utility.yul\":1243:1246   */\n      dup3\n        /* \"#utility.yul\":1236:1255   */\n      mstore\n        /* \"#utility.yul\":1288:1292   */\n      0x20\n        /* \"#utility.yul\":1283:1286   */\n      dup3\n        /* \"#utility.yul\":1279:1293   */\n      add\n        /* \"#utility.yul\":1264:1293   */\n      swap1\n      pop\n        /* \"#utility.yul\":1130:1299   */\n      swap3\n      swap2\n      pop\n      pop\n      jump\t// out\n        /* \"#utility.yul\":1305:1444   */\n    tag_39:\n        /* \"#utility.yul\":1394:1400   */\n      dup3\n        /* \"#utility.yul\":1389:1392   */\n      dup2\n        /* \"#utility.yul\":1384:1387   */\n      dup4\n        /* \"#utility.yul\":1378:1401   */\n      mcopy\n        /* \"#utility.yul\":1435:1436   */\n      0x00\n        /* \"#utility.yul\":1426:1432   */\n      dup4\n        /* \"#utility.yul\":1421:1424   */\n      dup4\n        /* \"#utility.yul\":1417:1433   */\n      add\n        /* \"#utility.yul\":1410:1437   */\n      mstore\n        /* \"#utility.yul\":1305:1444   */\n      pop\n      pop\n      pop\n      jump\t// out\n        /* \"#utility.yul\":1450:1552   */\n    tag_40:\n        /* \"#utility.yul\":1491:1497   */\n      0x00\n        /* \"#utility.yul\":1542:1544   */\n      0x1f\n        /* \"#utility.yul\":1538:1545   */\n      not\n        /* \"#utility.yul\":1533:1535   */\n      0x1f\n        /* \"#utility.yul\":1526:1531   */\n      dup4\n        /* \"#utility.yul\":1522:1536   */\n      add\n        /* \"#utility.yul\":1518:1546   */\n      and\n        /* \"#utility.yul\":1508:1546   */\n      swap1\n      pop\n        /* \"#utility.yul\":1450:1552   */\n      swap2\n      swap1\n      pop\n      jump\t// out\n        /* \"#utility.yul\":1558:1935   */\n    tag_41:\n        /* \"#utility.yul\":1646:1649   */\n      0x00\n        /* \"#utility.yul\":1674:1713   */\n      tag_66\n        /* \"#utility.yul\":1707:1712   */\n      dup3\n        /* \"#utility.yul\":1674:1713   */\n      tag_37\n      jump\t// in\n    tag_66:\n        /* \"#utility.yul\":1729:1800   */\n      tag_67\n        /* \"#utility.yul\":1793:1799   */\n      dup2\n        /* \"#utility.yul\":1788:1791   */\n      dup6\n        /* \"#utility.yul\":1729:1800   */\n      tag_38\n      jump\t// in\n    tag_67:\n        /* \"#utility.yul\":1722:1800   */\n      swap4\n      pop\n        /* \"#utility.yul\":1809:1874   */\n      tag_68\n        /* \"#utility.yul\":1867:1873   */\n      dup2\n        /* \"#utility.yul\":1862:1865   */\n      dup6\n        /* \"#utility.yul\":1855:1859   */\n      0x20\n        /* \"#utility.yul\":1848:1853   */\n      dup7\n        /* \"#utility.yul\":1844:1860   */\n      add\n        /* \"#utility.yul\":1809:1874   */\n      tag_39\n      jump\t// in\n    tag_68:\n        /* \"#utility.yul\":1899:1928   */\n      tag_69\n        /* \"#utility.yul\":1921:1927   */\n      dup2\n        /* \"#utility.yul\":1899:1928   */\n      tag_40\n      jump\t// in\n    tag_69:\n        /* \"#utility.yul\":1894:1897   */\n      dup5\n        /* \"#utility.yul\":1890:1929   */\n      add\n        /* \"#utility.yul\":1883:1929   */\n      swap2\n      pop\n        /* \"#utility.yul\":1650:1935   */\n      pop\n        /* \"#utility.yul\":1558:1935   */\n      swap3\n      swap2\n      pop\n      pop\n      jump\t// out\n        /* \"#utility.yul\":1941:2254   */\n    tag_9:\n        /* \"#utility.yul\":2054:2058   */\n      0x00\n        /* \"#utility.yul\":2092:2094   */\n      0x20\n        /* \"#utility.yul\":2081:2090   */\n      dup3\n        /* \"#utility.yul\":2077:2095   */\n      add\n        /* \"#utility.yul\":2069:2095   */\n      swap1\n      pop\n        /* \"#utility.yul\":2141:2150   */\n      dup2\n        /* \"#utility.yul\":2135:2139   */\n      dup2\n        /* \"#utility.yul\":2131:2151   */\n      sub\n        /* \"#utility.yul\":2127:2128   */\n      0x00\n        /* \"#utility.yul\":2116:2125   */\n      dup4\n        /* \"#utility.yul\":2112:2129   */\n      add\n        /* \"#utility.yul\":2105:2152   */\n      mstore\n        /* \"#utility.yul\":2169:2247   */\n      tag_71\n        /* \"#utility.yul\":2242:2246   */\n      dup2\n        /* \"#utility.yul\":2233:2239   */\n      dup5\n        /* \"#utility.yul\":2169:2247   */\n      tag_41\n      jump\t// in\n    tag_71:\n        /* \"#utility.yul\":2161:2247   */\n      swap1\n      pop\n        /* \"#utility.yul\":1941:2254   */\n      swap3\n      swap2\n      pop\n      pop\n      jump\t// out\n        /* \"#utility.yul\":2260:2428   */\n    tag_42:\n        /* \"#utility.yul\":2400:2420   */\n      0x496e707574206f7574206f662072616e67650000000000000000000000000000\n        /* \"#utility.yul\":2396:2397   */\n      0x00\n        /* \"#utility.yul\":2388:2394   */\n      dup3\n        /* \"#utility.yul\":2384:2398   */\n      add\n        /* \"#utility.yul\":2377:2421   */\n      mstore\n        /* \"#utility.yul\":2260:2428   */\n      pop\n      jump\t// out\n        /* \"#utility.yul\":2434:2800   */\n    tag_43:\n        /* \"#utility.yul\":2576:2579   */\n      0x00\n        /* \"#utility.yul\":2597:2664   */\n      tag_74\n        /* \"#utility.yul\":2661:2663   */\n      0x12\n        /* \"#utility.yul\":2656:2659   */\n      dup4\n        /* \"#utility.yul\":2597:2664   */\n      tag_38\n      jump\t// in\n    tag_74:\n        /* \"#utility.yul\":2590:2664   */\n      swap2\n      pop\n        /* \"#utility.yul\":2673:2766   */\n      tag_75\n        /* \"#utility.yul\":2762:2765   */\n      dup3\n        /* \"#utility.yul\":2673:2766   */\n      tag_42\n      jump\t// in\n    tag_75:\n        /* \"#utility.yul\":2791:2793   */\n      0x20\n        /* \"#utility.yul\":2786:2789   */\n      dup3\n        /* \"#utility.yul\":2782:2794   */\n      add\n        /* \"#utility.yul\":2775:2794   */\n      swap1\n      pop\n        /* \"#utility.yul\":2434:2800   */\n      swap2\n      swap1\n      pop\n      jump\t// out\n        /* \"#utility.yul\":2806:3225   */\n    tag_14:\n        /* \"#utility.yul\":2972:2976   */\n      0x00\n        /* \"#utility.yul\":3010:3012   */\n      0x20\n        /* \"#utility.yul\":2999:3008   */\n      dup3\n        /* \"#utility.yul\":2995:3013   */\n      add\n        /* \"#utility.yul\":2987:3013   */\n      swap1\n      pop\n        /* \"#utility.yul\":3059:3068   */\n      dup2\n        /* \"#utility.yul\":3053:3057   */\n      dup2\n        /* \"#utility.yul\":3049:3069   */\n      sub\n        /* \"#utility.yul\":3045:3046   */\n      0x00\n        /* \"#utility.yul\":3034:3043   */\n      dup4\n        /* \"#utility.yul\":3030:3047   */\n      add\n        /* \"#utility.yul\":3023:3070   */\n      mstore\n        /* \"#utility.yul\":3087:3218   */\n      tag_77\n        /* \"#utility.yul\":3213:3217   */\n      dup2\n        /* \"#utility.yul\":3087:3218   */\n      tag_43\n      jump\t// in\n    tag_77:\n        /* \"#utility.yul\":3079:3218   */\n      swap1\n      pop\n        /* \"#utility.yul\":2806:3225   */\n      swap2\n      swap1\n      pop\n      jump\t// out\n        /* \"#utility.yul\":3231:3411   */\n    tag_22:\n        /* \"#utility.yul\":3279:3356   */\n      0x4e487b7100000000000000000000000000000000000000000000000000000000\n        /* \"#utility.yul\":3276:3277   */\n      0x00\n        /* \"#utility.yul\":3269:3357   */\n      mstore\n        /* \"#utility.yul\":3376:3380   */\n      0x32\n        /* \"#utility.yul\":3373:3374   */\n      0x04\n        /* \"#utility.yul\":3366:3381   */\n      mstore\n        /* \"#utility.yul\":3400:3404   */\n      0x24\n        /* \"#utility.yul\":3397:3398   */\n      0x00\n        /* \"#utility.yul\":3390:3405   */\n      revert\n        /* \"#utility.yul\":3417:3565   */\n    tag_44:\n        /* \"#utility.yul\":3519:3530   */\n      0x00\n        /* \"#utility.yul\":3556:3559   */\n      dup2\n        /* \"#utility.yul\":3541:3559   */\n      swap1\n      pop\n        /* \"#utility.yul\":3417:3565   */\n      swap3\n      swap2\n      pop\n      pop\n      jump\t// out\n        /* \"#utility.yul\":3571:3961   */\n    tag_45:\n        /* \"#utility.yul\":3677:3680   */\n      0x00\n        /* \"#utility.yul\":3705:3744   */\n      tag_81\n        /* \"#utility.yul\":3738:3743   */\n      dup3\n        /* \"#utility.yul\":3705:3744   */\n      tag_37\n      jump\t// in\n    tag_81:\n        /* \"#utility.yul\":3760:3849   */\n      tag_82\n        /* \"#utility.yul\":3842:3848   */\n      dup2\n        /* \"#utility.yul\":3837:3840   */\n      dup6\n        /* \"#utility.yul\":3760:3849   */\n      tag_44\n      jump\t// in\n    tag_82:\n        /* \"#utility.yul\":3753:3849   */\n      swap4\n      pop\n        /* \"#utility.yul\":3858:3923   */\n      tag_83\n        /* \"#utility.yul\":3916:3922   */\n      dup2\n        /* \"#utility.yul\":3911:3914   */\n      dup6\n        /* \"#utility.yul\":3904:3908   */\n      0x20\n        /* \"#utility.yul\":3897:3902   */\n      dup7\n        /* \"#utility.yul\":3893:3909   */\n      add\n        /* \"#utility.yul\":3858:3923   */\n      tag_39\n      jump\t// in\n    tag_83:\n        /* \"#utility.yul\":3948:3954   */\n      dup1\n        /* \"#utility.yul\":3943:3946   */\n      dup5\n        /* \"#utility.yul\":3939:3955   */\n      add\n        /* \"#utility.yul\":3932:3955   */\n      swap2\n      pop\n        /* \"#utility.yul\":3681:3961   */\n      pop\n        /* \"#utility.yul\":3571:3961   */\n      swap3\n      swap2\n      pop\n      pop\n      jump\t// out\n        /* \"#utility.yul\":3967:4402   */\n    tag_26:\n        /* \"#utility.yul\":4147:4150   */\n      0x00\n        /* \"#utility.yul\":4169:4264   */\n      tag_85\n        /* \"#utility.yul\":4260:4263   */\n      dup3\n        /* \"#utility.yul\":4251:4257   */\n      dup6\n        /* \"#utility.yul\":4169:4264   */\n      tag_45\n      jump\t// in\n    tag_85:\n        /* \"#utility.yul\":4162:4264   */\n      swap2\n      pop\n        /* \"#utility.yul\":4281:4376   */\n      tag_86\n        /* \"#utility.yul\":4372:4375   */\n      dup3\n        /* \"#utility.yul\":4363:4369   */\n      dup5\n        /* \"#utility.yul\":4281:4376   */\n      tag_45\n      jump\t// in\n    tag_86:\n        /* \"#utility.yul\":4274:4376   */\n      swap2\n      pop\n        /* \"#utility.yul\":4393:4396   */\n      dup2\n        /* \"#utility.yul\":4386:4396   */\n      swap1\n      pop\n        /* \"#utility.yul\":3967:4402   */\n      swap4\n      swap3\n      pop\n      pop\n      pop\n      jump\t// out\n        /* \"#utility.yul\":4408:4588   */\n    tag_46:\n        /* \"#utility.yul\":4456:4533   */\n      0x4e487b7100000000000000000000000000000000000000000000000000000000\n        /* \"#utility.yul\":4453:4454   */\n      0x00\n        /* \"#utility.yul\":4446:4534   */\n      mstore\n        /* \"#utility.yul\":4553:4557   */\n      0x11\n        /* \"#utility.yul\":4550:4551   */\n      0x04\n        /* \"#utility.yul\":4543:4558   */\n      mstore\n        /* \"#utility.yul\":4577:4581   */\n      0x24\n        /* \"#utility.yul\":4574:4575   */\n      0x00\n        /* \"#utility.yul\":4567:4582   */\n      revert\n        /* \"#utility.yul\":4594:4788   */\n    tag_30:\n        /* \"#utility.yul\":4634:4638   */\n      0x00\n        /* \"#utility.yul\":4654:4674   */\n      tag_89\n        /* \"#utility.yul\":4672:4673   */\n      dup3\n        /* \"#utility.yul\":4654:4674   */\n      tag_34\n      jump\t// in\n    tag_89:\n        /* \"#utility.yul\":4649:4674   */\n      swap2\n      pop\n        /* \"#utility.yul\":4688:4708   */\n      tag_90\n        /* \"#utility.yul\":4706:4707   */\n      dup4\n        /* \"#utility.yul\":4688:4708   */\n      tag_34\n      jump\t// in\n    tag_90:\n        /* \"#utility.yul\":4683:4708   */\n      swap3\n      pop\n        /* \"#utility.yul\":4732:4733   */\n      dup3\n        /* \"#utility.yul\":4729:4730   */\n      dup3\n        /* \"#utility.yul\":4725:4734   */\n      sub\n        /* \"#utility.yul\":4717:4734   */\n      swap1\n      pop\n        /* \"#utility.yul\":4756:4757   */\n      dup2\n        /* \"#utility.yul\":4750:4754   */\n      dup2\n        /* \"#utility.yul\":4747:4758   */\n      gt\n        /* \"#utility.yul\":4744:4781   */\n      iszero\n      tag_91\n      jumpi\n        /* \"#utility.yul\":4761:4779   */\n      tag_92\n      tag_46\n      jump\t// in\n    tag_92:\n        /* \"#utility.yul\":4744:4781   */\n    tag_91:\n        /* \"#utility.yul\":4594:4788   */\n      swap3\n      swap2\n      pop\n      pop\n      jump\t// out\n\n    auxdata: 0xa264697066735822122077bacd8e617f4d4a0c51e2db4cf639998faa504777c53c9fcc5262c67520af4f64736f6c634300081e0033\n}\n",
				"bytecode": {
					"linkReferences": {},
					"object": "6080604052348015600e575f5ffd5b506107608061001c5f395ff3fe608060405234801561000f575f5ffd5b5060043610610029575f3560e01c80630cbc513a1461002d575b5f5ffd5b6100476004803603810190610042919061051d565b61005d565b60405161005491906105b8565b60405180910390f35b6060600182101580156100725750610f9f8211155b6100b1576040517f08c379a00000000000000000000000000000000000000000000000000000000081526004016100a890610622565b60405180910390fd5b5f604051806101a001604052806103e8815260200161038481526020016101f48152602001610190815260200160648152602001605a81526020016032815260200160288152602001600a8152602001600981526020016005815260200160048152602001600181525090505f604051806101a001604052806040518060400160405280600181526020017f4d0000000000000000000000000000000000000000000000000000000000000081525081526020016040518060400160405280600281526020017f434d00000000000000000000000000000000000000000000000000000000000081525081526020016040518060400160405280600181526020017f440000000000000000000000000000000000000000000000000000000000000081525081526020016040518060400160405280600281526020017f434400000000000000000000000000000000000000000000000000000000000081525081526020016040518060400160405280600181526020017f430000000000000000000000000000000000000000000000000000000000000081525081526020016040518060400160405280600281526020017f584300000000000000000000000000000000000000000000000000000000000081525081526020016040518060400160405280600181526020017f4c0000000000000000000000000000000000000000000000000000000000000081525081526020016040518060400160405280600281526020017f584c00000000000000000000000000000000000000000000000000000000000081525081526020016040518060400160405280600181526020017f580000000000000000000000000000000000000000000000000000000000000081525081526020016040518060400160405280600281526020017f495800000000000000000000000000000000000000000000000000000000000081525081526020016040518060400160405280600181526020017f560000000000000000000000000000000000000000000000000000000000000081525081526020016040518060400160405280600281526020017f495600000000000000000000000000000000000000000000000000000000000081525081526020016040518060400160405280600181526020017f490000000000000000000000000000000000000000000000000000000000000081525081525090505f60405180602001604052805f81525090505f5f90505b600d8110156104da575b8381600d811061045d5761045c610640565b5b602002015186106104cd57818382600d811061047c5761047b610640565b5b60200201516040516020016104929291906106a7565b60405160208183030381529060405291508381600d81106104b6576104b5610640565b5b6020020151866104c691906106f7565b955061044a565b8080600101915050610440565b50809350505050919050565b5f5ffd5b5f819050919050565b6104fc816104ea565b8114610506575f5ffd5b50565b5f81359050610517816104f3565b92915050565b5f60208284031215610532576105316104e6565b5b5f61053f84828501610509565b91505092915050565b5f81519050919050565b5f82825260208201905092915050565b8281835e5f83830152505050565b5f601f19601f8301169050919050565b5f61058a82610548565b6105948185610552565b93506105a4818560208601610562565b6105ad81610570565b840191505092915050565b5f6020820190508181035f8301526105d08184610580565b905092915050565b7f496e707574206f7574206f662072616e676500000000000000000000000000005f82015250565b5f61060c601283610552565b9150610617826105d8565b602082019050919050565b5f6020820190508181035f83015261063981610600565b9050919050565b7f4e487b71000000000000000000000000000000000000000000000000000000005f52603260045260245ffd5b5f81905092915050565b5f61068182610548565b61068b818561066d565b935061069b818560208601610562565b80840191505092915050565b5f6106b28285610677565b91506106be8284610677565b91508190509392505050565b7f4e487b71000000000000000000000000000000000000000000000000000000005f52601160045260245ffd5b5f610701826104ea565b915061070c836104ea565b9250828203905081811115610724576107236106ca565b5b9291505056fea264697066735822122077bacd8e617f4d4a0c51e2db4cf639998faa504777c53c9fcc5262c67520af4f64736f6c634300081e0033",
					"opcodes": "PUSH1 0x80 PUSH1 0x40 MSTORE CALLVALUE DUP1 ISZERO PUSH1 0xE JUMPI PUSH0 PUSH0 REVERT JUMPDEST POP PUSH2 0x760 DUP1 PUSH2 0x1C PUSH0 CODECOPY PUSH0 RETURN INVALID PUSH1 0x80 PUSH1 0x40 MSTORE CALLVALUE DUP1 ISZERO PUSH2 0xF JUMPI PUSH0 PUSH0 REVERT JUMPDEST POP PUSH1 0x4 CALLDATASIZE LT PUSH2 0x29 JUMPI PUSH0 CALLDATALOAD PUSH1 0xE0 SHR DUP1 PUSH4 0xCBC513A EQ PUSH2 0x2D JUMPI JUMPDEST PUSH0 PUSH0 REVERT JUMPDEST PUSH2 0x47 PUSH1 0x4 DUP1 CALLDATASIZE SUB DUP2 ADD SWAP1 PUSH2 0x42 SWAP2 SWAP1 PUSH2 0x51D JUMP JUMPDEST PUSH2 0x5D JUMP JUMPDEST PUSH1 0x40 MLOAD PUSH2 0x54 SWAP2 SWAP1 PUSH2 0x5B8 JUMP JUMPDEST PUSH1 0x40 MLOAD DUP1 SWAP2 SUB SWAP1 RETURN JUMPDEST PUSH1 0x60 PUSH1 0x1 DUP3 LT ISZERO DUP1 ISZERO PUSH2 0x72 JUMPI POP PUSH2 0xF9F DUP3 GT ISZERO JUMPDEST PUSH2 0xB1 JUMPI PUSH1 0x40 MLOAD PUSH32 0x8C379A000000000000000000000000000000000000000000000000000000000 DUP2 MSTORE PUSH1 0x4 ADD PUSH2 0xA8 SWAP1 PUSH2 0x622 JUMP JUMPDEST PUSH1 0x40 MLOAD DUP1 SWAP2 SUB SWAP1 REVERT JUMPDEST PUSH0 PUSH1 0x40 MLOAD DUP1 PUSH2 0x1A0 ADD PUSH1 0x40 MSTORE DUP1 PUSH2 0x3E8 DUP2 MSTORE PUSH1 0x20 ADD PUSH2 0x384 DUP2 MSTORE PUSH1 0x20 ADD PUSH2 0x1F4 DUP2 MSTORE PUSH1 0x20 ADD PUSH2 0x190 DUP2 MSTORE PUSH1 0x20 ADD PUSH1 0x64 DUP2 MSTORE PUSH1 0x20 ADD PUSH1 0x5A DUP2 MSTORE PUSH1 0x20 ADD PUSH1 0x32 DUP2 MSTORE PUSH1 0x20 ADD PUSH1 0x28 DUP2 MSTORE PUSH1 0x20 ADD PUSH1 0xA DUP2 MSTORE PUSH1 0x20 ADD PUSH1 0x9 DUP2 MSTORE PUSH1 0x20 ADD PUSH1 0x5 DUP2 MSTORE PUSH1 0x20 ADD PUSH1 0x4 DUP2 MSTORE PUSH1 0x20 ADD PUSH1 0x1 DUP2 MSTORE POP SWAP1 POP PUSH0 PUSH1 0x40 MLOAD DUP1 PUSH2 0x1A0 ADD PUSH1 0x40 MSTORE DUP1 PUSH1 0x40 MLOAD DUP1 PUSH1 0x40 ADD PUSH1 0x40 MSTORE DUP1 PUSH1 0x1 DUP2 MSTORE PUSH1 0x20 ADD PUSH32 0x4D00000000000000000000000000000000000000000000000000000000000000 DUP2 MSTORE POP DUP2 MSTORE PUSH1 0x20 ADD PUSH1 0x40 MLOAD DUP1 PUSH1 0x40 ADD PUSH1 0x40 MSTORE DUP1 PUSH1 0x2 DUP2 MSTORE PUSH1 0x20 ADD PUSH32 0x434D000000000000000000000000000000000000000000000000000000000000 DUP2 MSTORE POP DUP2 MSTORE PUSH1 0x20 ADD PUSH1 0x40 MLOAD DUP1 PUSH1 0x40 ADD PUSH1 0x40 MSTORE DUP1 PUSH1 0x1 DUP2 MSTORE PUSH1 0x20 ADD PUSH32 0x4400000000000000000000000000000000000000000000000000000000000000 DUP2 MSTORE POP DUP2 MSTORE PUSH1 0x20 ADD PUSH1 0x40 MLOAD DUP1 PUSH1 0x40 ADD PUSH1 0x40 MSTORE DUP1 PUSH1 0x2 DUP2 MSTORE PUSH1 0x20 ADD PUSH32 0x4344000000000000000000000000000000000000000000000000000000000000 DUP2 MSTORE POP DUP2 MSTORE PUSH1 0x20 ADD PUSH1 0x40 MLOAD DUP1 PUSH1 0x40 ADD PUSH1 0x40 MSTORE DUP1 PUSH1 0x1 DUP2 MSTORE PUSH1 0x20 ADD PUSH32 0x4300000000000000000000000000000000000000000000000000000000000000 DUP2 MSTORE POP DUP2 MSTORE PUSH1 0x20 ADD PUSH1 0x40 MLOAD DUP1 PUSH1 0x40 ADD PUSH1 0x40 MSTORE DUP1 PUSH1 0x2 DUP2 MSTORE PUSH1 0x20 ADD PUSH32 0x5843000000000000000000000000000000000000000000000000000000000000 DUP2 MSTORE POP DUP2 MSTORE PUSH1 0x20 ADD PUSH1 0x40 MLOAD DUP1 PUSH1 0x40 ADD PUSH1 0x40 MSTORE DUP1 PUSH1 0x1 DUP2 MSTORE PUSH1 0x20 ADD PUSH32 0x4C00000000000000000000000000000000000000000000000000000000000000 DUP2 MSTORE POP DUP2 MSTORE PUSH1 0x20 ADD PUSH1 0x40 MLOAD DUP1 PUSH1 0x40 ADD PUSH1 0x40 MSTORE DUP1 PUSH1 0x2 DUP2 MSTORE PUSH1 0x20 ADD PUSH32 0x584C000000000000000000000000000000000000000000000000000000000000 DUP2 MSTORE POP DUP2 MSTORE PUSH1 0x20 ADD PUSH1 0x40 MLOAD DUP1 PUSH1 0x40 ADD PUSH1 0x40 MSTORE DUP1 PUSH1 0x1 DUP2 MSTORE PUSH1 0x20 ADD PUSH32 0x5800000000000000000000000000000000000000000000000000000000000000 DUP2 MSTORE POP DUP2 MSTORE PUSH1 0x20 ADD PUSH1 0x40 MLOAD DUP1 PUSH1 0x40 ADD PUSH1 0x40 MSTORE DUP1 PUSH1 0x2 DUP2 MSTORE PUSH1 0x20 ADD PUSH32 0x4958000000000000000000000000000000000000000000000000000000000000 DUP2 MSTORE POP DUP2 MSTORE PUSH1 0x20 ADD PUSH1 0x40 MLOAD DUP1 PUSH1 0x40 ADD PUSH1 0x40 MSTORE DUP1 PUSH1 0x1 DUP2 MSTORE PUSH1 0x20 ADD PUSH32 0x5600000000000000000000000000000000000000000000000000000000000000 DUP2 MSTORE POP DUP2 MSTORE PUSH1 0x20 ADD PUSH1 0x40 MLOAD DUP1 PUSH1 0x40 ADD PUSH1 0x40 MSTORE DUP1 PUSH1 0x2 DUP2 MSTORE PUSH1 0x20 ADD PUSH32 0x4956000000000000000000000000000000000000000000000000000000000000 DUP2 MSTORE POP DUP2 MSTORE PUSH1 0x20 ADD PUSH1 0x40 MLOAD DUP1 PUSH1 0x40 ADD PUSH1 0x40 MSTORE DUP1 PUSH1 0x1 DUP2 MSTORE PUSH1 0x20 ADD PUSH32 0x4900000000000000000000000000000000000000000000000000000000000000 DUP2 MSTORE POP DUP2 MSTORE POP SWAP1 POP PUSH0 PUSH1 0x40 MLOAD DUP1 PUSH1 0x20 ADD PUSH1 0x40 MSTORE DUP1 PUSH0 DUP2 MSTORE POP SWAP1 POP PUSH0 PUSH0 SWAP1 POP JUMPDEST PUSH1 0xD DUP2 LT ISZERO PUSH2 0x4DA JUMPI JUMPDEST DUP4 DUP2 PUSH1 0xD DUP2 LT PUSH2 0x45D JUMPI PUSH2 0x45C PUSH2 0x640 JUMP JUMPDEST JUMPDEST PUSH1 0x20 MUL ADD MLOAD DUP7 LT PUSH2 0x4CD JUMPI DUP2 DUP4 DUP3 PUSH1 0xD DUP2 LT PUSH2 0x47C JUMPI PUSH2 0x47B PUSH2 0x640 JUMP JUMPDEST JUMPDEST PUSH1 0x20 MUL ADD MLOAD PUSH1 0x40 MLOAD PUSH1 0x20 ADD PUSH2 0x492 SWAP3 SWAP2 SWAP1 PUSH2 0x6A7 JUMP JUMPDEST PUSH1 0x40 MLOAD PUSH1 0x20 DUP2 DUP4 SUB SUB DUP2 MSTORE SWAP1 PUSH1 0x40 MSTORE SWAP2 POP DUP4 DUP2 PUSH1 0xD DUP2 LT PUSH2 0x4B6 JUMPI PUSH2 0x4B5 PUSH2 0x640 JUMP JUMPDEST JUMPDEST PUSH1 0x20 MUL ADD MLOAD DUP7 PUSH2 0x4C6 SWAP2 SWAP1 PUSH2 0x6F7 JUMP JUMPDEST SWAP6 POP PUSH2 0x44A JUMP JUMPDEST DUP1 DUP1 PUSH1 0x1 ADD SWAP2 POP POP PUSH2 0x440 JUMP JUMPDEST POP DUP1 SWAP4 POP POP POP POP SWAP2 SWAP1 POP JUMP JUMPDEST PUSH0 PUSH0 REVERT JUMPDEST PUSH0 DUP2 SWAP1 POP SWAP2 SWAP1 POP JUMP JUMPDEST PUSH2 0x4FC DUP2 PUSH2 0x4EA JUMP JUMPDEST DUP2 EQ PUSH2 0x506 JUMPI PUSH0 PUSH0 REVERT JUMPDEST POP JUMP JUMPDEST PUSH0 DUP2 CALLDATALOAD SWAP1 POP PUSH2 0x517 DUP2 PUSH2 0x4F3 JUMP JUMPDEST SWAP3 SWAP2 POP POP JUMP JUMPDEST PUSH0 PUSH1 0x20 DUP3 DUP5 SUB SLT ISZERO PUSH2 0x532 JUMPI PUSH2 0x531 PUSH2 0x4E6 JUMP JUMPDEST JUMPDEST PUSH0 PUSH2 0x53F DUP5 DUP3 DUP6 ADD PUSH2 0x509 JUMP JUMPDEST SWAP2 POP POP SWAP3 SWAP2 POP POP JUMP JUMPDEST PUSH0 DUP2 MLOAD SWAP1 POP SWAP2 SWAP1 POP JUMP JUMPDEST PUSH0 DUP3 DUP3 MSTORE PUSH1 0x20 DUP3 ADD SWAP1 POP SWAP3 SWAP2 POP POP JUMP JUMPDEST DUP3 DUP2 DUP4 MCOPY PUSH0 DUP4 DUP4 ADD MSTORE POP POP POP JUMP JUMPDEST PUSH0 PUSH1 0x1F NOT PUSH1 0x1F DUP4 ADD AND SWAP1 POP SWAP2 SWAP1 POP JUMP JUMPDEST PUSH0 PUSH2 0x58A DUP3 PUSH2 0x548 JUMP JUMPDEST PUSH2 0x594 DUP2 DUP6 PUSH2 0x552 JUMP JUMPDEST SWAP4 POP PUSH2 0x5A4 DUP2 DUP6 PUSH1 0x20 DUP7 ADD PUSH2 0x562 JUMP JUMPDEST PUSH2 0x5AD DUP2 PUSH2 0x570 JUMP JUMPDEST DUP5 ADD SWAP2 POP POP SWAP3 SWAP2 POP POP JUMP JUMPDEST PUSH0 PUSH1 0x20 DUP3 ADD SWAP1 POP DUP2 DUP2 SUB PUSH0 DUP4 ADD MSTORE PUSH2 0x5D0 DUP2 DUP5 PUSH2 0x580 JUMP JUMPDEST SWAP1 POP SWAP3 SWAP2 POP POP JUMP JUMPDEST PUSH32 0x496E707574206F7574206F662072616E67650000000000000000000000000000 PUSH0 DUP3 ADD MSTORE POP JUMP JUMPDEST PUSH0 PUSH2 0x60C PUSH1 0x12 DUP4 PUSH2 0x552 JUMP JUMPDEST SWAP2 POP PUSH2 0x617 DUP3 PUSH2 0x5D8 JUMP JUMPDEST PUSH1 0x20 DUP3 ADD SWAP1 POP SWAP2 SWAP1 POP JUMP JUMPDEST PUSH0 PUSH1 0x20 DUP3 ADD SWAP1 POP DUP2 DUP2 SUB PUSH0 DUP4 ADD MSTORE PUSH2 0x639 DUP2 PUSH2 0x600 JUMP JUMPDEST SWAP1 POP SWAP2 SWAP1 POP JUMP JUMPDEST PUSH32 0x4E487B7100000000000000000000000000000000000000000000000000000000 PUSH0 MSTORE PUSH1 0x32 PUSH1 0x4 MSTORE PUSH1 0x24 PUSH0 REVERT JUMPDEST PUSH0 DUP2 SWAP1 POP SWAP3 SWAP2 POP POP JUMP JUMPDEST PUSH0 PUSH2 0x681 DUP3 PUSH2 0x548 JUMP JUMPDEST PUSH2 0x68B DUP2 DUP6 PUSH2 0x66D JUMP JUMPDEST SWAP4 POP PUSH2 0x69B DUP2 DUP6 PUSH1 0x20 DUP7 ADD PUSH2 0x562 JUMP JUMPDEST DUP1 DUP5 ADD SWAP2 POP POP SWAP3 SWAP2 POP POP JUMP JUMPDEST PUSH0 PUSH2 0x6B2 DUP3 DUP6 PUSH2 0x677 JUMP JUMPDEST SWAP2 POP PUSH2 0x6BE DUP3 DUP5 PUSH2 0x677 JUMP JUMPDEST SWAP2 POP DUP2 SWAP1 POP SWAP4 SWAP3 POP POP POP JUMP JUMPDEST PUSH32 0x4E487B7100000000000000000000000000000000000000000000000000000000 PUSH0 MSTORE PUSH1 0x11 PUSH1 0x4 MSTORE PUSH1 0x24 PUSH0 REVERT JUMPDEST PUSH0 PUSH2 0x701 DUP3 PUSH2 0x4EA JUMP JUMPDEST SWAP2 POP PUSH2 0x70C DUP4 PUSH2 0x4EA JUMP JUMPDEST SWAP3 POP DUP3 DUP3 SUB SWAP1 POP DUP2 DUP2 GT ISZERO PUSH2 0x724 JUMPI PUSH2 0x723 PUSH2 0x6CA JUMP JUMPDEST JUMPDEST SWAP3 SWAP2 POP POP JUMP INVALID LOG2 PUSH5 0x6970667358 0x22 SLT KECCAK256 PUSH24 0xBACD8E617F4D4A0C51E2DB4CF639998FAA504777C53C9FCC MSTORE PUSH3 0xC67520 0xAF 0x4F PUSH5 0x736F6C6343 STOP ADDMOD 0x1E STOP CALLER "
				},
				"gasEstimates": {
					"creation": {
						"codeDepositCost": "377600",
						"executionCost": "409",
						"totalCost": "378009"
					},
					"external": {
						"intToRoman(uint256)": "infinite"
					}
				},
				"methodIdentifiers": {
					"intToRoman(uint256)": "0cbc513a"
				}
			},
			"storageLayout": {
				"storage": [],
				"types": null
			},
			"userdoc": {
				"kind": "user",
				"methods": {},
				"version": 1
			}
		}
	}
}